:10000000C0510020ED21000093750000A5210000E3
:10001000A5210000A5210000A5210000000000008E
:10002000000000000000000000000000191C00009B
:10003000A521000000000000C51B0000A521000054
:10004000F11C0000F11C0000F11C0000F11C00007C
:10005000F11C0000F11C0000F11C0000F11C00006C
:10006000F11C0000F11C0000F11C0000F11C00005C
:10007000F11C0000F11C0000F11C0000F11C00004C
:10008000F11C0000F11C0000F11C0000F11C00003C
:10009000F11C0000F11C0000F11C0000F11C00002C
:1000A000F11C0000F11C0000F11C0000F11C00001C
:1000B000F11C0000F11C0000F11C0000F11C00000C
:1000C000F11C0000F11C0000F11C0000F11C0000FC
:1000D000F11C0000F11C0000F11C0000F11C0000EC
:1000E000F11C0000F11C0000F11C0000F11C0000DC
:1000F000F11C0000F11C0000F11C0000F11C0000CC
:1001000053B94AB9002908BF00281CBF4FF0FF317E
:100110004FF0FF3000F00CB8ADF1080C6DE904CEE3
:1001200000F008F8DDF804E0DDE9022304B07047D0
:10013000704700BF2DE9F04F07468C460846099EE0
:1001400015463C461946002B40F0C6808242B2FA62
:1001500082F746D94FB1C7F1200E24FA0EFE00FAFD
:1001600007F3BD404EEA030CBC404FEA15481FFAA6
:1001700085FEBCFBF8F9220C08FB19C309FB0EFA3B
:1001800042EA03439A4528D9EB1809F1FF3004D21B
:100190009A4502D9A9F102002B44A3EB0A03A4B2A9
:1001A000B3FBF8F208FB123302FB0EFE44EA0344F1
:1001B000A64514D92C1902F1FF3303D2A64501D963
:1001C000931E2C44A4EB0E0443EA00401EB1FC40F5
:1001D000002334607360BDE8F08F4846DDE71346C6
:1001E000F0E702B9FFDE87BB831A01214FEA154E03
:1001F000AAB2B3FBFEFC200C0EFB1C330CFB02F876
:1002000040EA0343984563D9EB180CF1FF3004D260
:10021000984502D9ACF102002B44A3EB0803A4B229
:10022000B3FBFEFC0EFB1C330CFB02F244EA03445E
:10023000A2424FD92C190CF1FF3304D2A24202D9A9
:10024000ACF102032C44A41ABEE7C7F1200C20FA3B
:100250000CF800FA07F324FA0CFCBD404CEA030248
:100260004FEA154EABB2B8FBFEFC110C0EFB1C8026
:100270000CFB03F941EA0040814504FA07F423D955
:1002800028180CF1FF3104D2814502D9ACF10201EA
:100290002844A0EB090092B2B0FBFEFC0EFB1C0050
:1002A0000CFB03F842EA004398450FD9EB180CF118
:1002B000FF3204D2984502D9ACF102022B44A3EBE1
:1002C000080342EA014191E76146E2E76246F6E748
:1002D0006046A2E76346B6E7834205D90EB1C6E998
:1002E00000700021084676E7B3FA83F181B98342B2
:1002F00001D3BA420AD8BC1A60EB030301209C4622
:10030000002E68D0C6E9004C002164E70846F7E7F4
:10031000C1F1200C8B4022FA0CF41C4302FA01F5C7
:1003200000FA01F327FA0CF220FA0CFB4FEA144909
:100330001343BBFBF9F81FFA84FE09FB18BB1A0C28
:1003400008FB0EFA42EA0B42924507FA01F73ED942
:10035000A21808F1FF3004D2924502D9A8F1020098
:100360002244A2EB0A029BB2B2FBF9F809FB182265
:1003700008FB0EFE43EA024296452AD9A21808F16C
:10038000FF3304D2964502D9A8F10203224443EA7E
:100390000040A0FB0593A2EB0E029A42CE4698467F
:1003A00002D306D14F4504D2B9EB050E63EB040826
:1003B000013886B1B7EB0E0362EB080707FA0CFCB5
:1003C000CB404CEA0303CF40C6E900379CE74046E8
:1003D000C7E74346DBE73146FDE6000000B587B0DE
:1003E0001E4B019300238DF8083007E003F5C07120
:1003F0001A4A1B4842F821000133DBB2072BF5D91A
:100400004921184806F0BEFF00F05AF8164800F0DF
:1004100039F858B103A800F089FC144B1B688342DB
:100420000AD04521124806F0ADFFFEE70E4A4521ED
:10043000104806F0A7FFFEE7059A49210E4806F08E
:10044000A1FF49210D4806F09DFF03A806F063F9BE
:1004500045210B4806F096FFFEE700BF0000014073
:100460003546526E98A30000B4A30000E41A0020A1
:10047000E8A30000C8A300000CA400003CA40000F6
:1004800064A4000008B5054B1B6813B1034B186842
:1004900008BD04F01BFE014B1860F7E7E0020020E6
:1004A00010B900200860704708B5024600234521B6
:1004B000024806F067FF6FF0150008BD88A4000031
:1004C00008B54FF4C051024804F0F4FA08BD00BF6B
:1004D000E402002070B5A4B020292AD806460D46B3
:1004E000002400E00134144B1B68A3421CDD09A862
:1004F00009F00FF9002109A804F00AFC0F4B03EBE7
:10050000C4025268126853F8341009A809F007F9B8
:1005100001A909A809F046F92A46314601A807F0C1
:10052000B1F80028DED101E04FF0FF34204624B0BE
:1005300070BD4FF0FF34F9E7B0A40000B4A4000090
:100540002DE9F041D6B015461F465A4CD4F800802C
:100550005F9C04945E9C039406AC02945D9C0194A1
:100560005C9C009406F0FFF80446002840F085806B
:10057000609B23B1202206A9184607F095F80023B6
:1005800000934FF6FF733A4629464EA806F02AF923
:100590000446002871D145464FF0FF361CE04FF06D
:1005A000FF3619E04FF0FF3616E0BDF85231202B30
:1005B00077D10EAA5599384606F0F3FE0446002876
:1005C00061D120220EA906A806F07BFA05463A4B17
:1005D0001B68834259D1012454AB0DF5A97255A96A
:1005E0004EA806F064F9002845DB37DCBDF8501151
:1005F0001029DAD0012920D02029EDD1002ECEDB20
:100600002E4B1B68B342CDDDBDF85231B3F5807F70
:100610004DD10EAA5599384606F0C3FE002839D1AF
:10062000F6B20096BDF852310EAA202106A800F0BD
:10063000B9F880464FF0FF36CEE7BDF85231202B97
:1006400032D80EAA5599384606F0ABFEF8B99DF897
:1006500052110EA8FFF73EFF0646BDE7002C0CBF67
:100660000124002419D0144B1B68434517D0114BAB
:10067000D3F8008001E0A846044604B94446204669
:1006800056B0BDE8F081A846F7E78046F5E7A846F2
:100690000446F2E7A8460446EFE7A846EDE7984689
:1006A000EBE74FF0FF34EAE74FF0FF34E7E74FF0B6
:1006B000FF34E4E700000020E41A0020B0A40000AA
:1006C00030B5ADF51D7D0D4619464368B3F5807F05
:1006D00051D1202A52D141AA04F0D8FA0446002868
:1006E0004FD19DF80332BC2B4ED10DF2E31109A876
:1006F00006F08BF9234608E041AAD25C09A810F85D
:1007000003C082EA0C02C2540133DE2BF4DD9DF8F3
:10071000243003F07F038DF82430BD2C05DC09ABB9
:100720001B5D002B33D10134F7E79DF8E230012B3C
:1007300032D181A808F0EDFF002181A804F0E8FA89
:100740000822174981A808F0EAFF2022294681A83B
:1007500008F0E5FF20220DF1E30181A808F0DFFF9A
:1007600001A981A809F01EF820220DF2E31101A8C9
:1007700006F0A7F90DE04FF0FF300AE04FF0FF3030
:1007800007E04FF0FF3004E04FF0FF3001E04FF0A2
:10079000FF300DF51D7D30BD4FF0FF30F9E700BF94
:1007A000BCA400002DE9F047ACB006460F469046C9
:1007B0001D469DF8D0A0144BD3F8009001A808F076
:1007C00064FF124C54F83A30009304EBCA04626898
:1007D00012681A44694601A806F0C5F810B9029BD0
:1007E000AB4209D001A808F05CFF01A808F059FF4E
:1007F00048462CB0BDE8F08743463A46314601A84A
:10080000FFF75EFF8146F0E700000020B4A400007F
:1008100008B51022034906F035FF08B1022008BDD3
:100820000120FCE7FCB1000002680B4B9A420ED19C
:10083000C2680389D843824203D802EB030C01202B
:1008400000E0002010B18B68634502D9704700209A
:1008500070470020FAE700BF3DB8F39600B587B0B7
:10086000134600200490039002904FF4807201928E
:10087000044A00920A460146FFF762FE07B05DF89F
:1008800004FB00BF482700202DE9F04182B0054657
:100890000C46174623480668002005F058FF01A9BA
:1008A000C0B201F0A5F818B1304602B0BDE8F08141
:1008B0002C2000FB04582146284606F0CAF920B136
:1008C000D8F8103013F0100F0AD024B9012601987F
:1008D00006F066FDE8E70199284606F0B1FAF5E76B
:1008E0003B46019A41462846FFF7B8FF0646019D60
:1008F00029464046FFF798FF18B10B4B1B68B342DF
:10090000E5D03CB964B9094A4521094806F03AFDE9
:100910000126DCE7AA680021284606F07EFDF1E703
:10092000044AF1E700000020E41A0020D0A40000EF
:10093000D8A40000C4A4000070B505460E460020EF
:1009400004F008FB0446022805D0042803D003283D
:1009500001D0204670BD324601212846FFF794FFA2
:10096000044B1B688342F4D0012801D00524F0E732
:100970000446EEE7E41A002030B583B005460C4685
:10098000002300930193084606F0F2F930B32A6879
:10099000194B9A4216D0EA6A174B9A4218D0019B1B
:1009A000009A934200D90093009BA360009A2146CD
:1009B000284600F02DFC114B1A68002A16DC002096
:1009C00003B030BD6A460021284606F0EBF8E2E7A6
:1009D00001AA0121284606F0E5F8E0E704F1080144
:1009E000002006F092F8A3680093DFE7572104483F
:1009F00006F0C8FCE3E700BF3DB8F39648280020A6
:100A000000A5000038B504460D46FFF7B5FFEB79A9
:100A100084F85830033BDBB2012B0BD9EB79022B66
:100A200011D0042B0FD0032B0DD094F85830FF2B8E
:100A300012D038BD002006F0AFFA0028EED0FF2318
:100A400084F85830EAE7002006F093FA0028ECD04A
:100A5000FF2384F85830E8E74521024806F092FC6D
:100A6000FEE700BF30A5000070B504460D4606F055
:100A700038F950B1064680225721384806F082FCEA
:100A8000012384F858309E420CD0002211462046A3
:100A900006F03DF938B9204600F0C4FA60B90123E8
:100AA00084F8583070BD002257212D4806F06AFCAA
:100AB000012384F85830F5E7284606F04FF9294617
:100AC000204606F017FAF0B9284606F051F980F0F2
:100AD00001012A46C9B2204606F019F9E0B92846B4
:100AE00006F046F908B3EB79012B2BD02A460121F9
:100AF0002046FFF7C9FE1B4B1B68984229D00523EF
:100B000084F85830CEE700225721174806F03AFC07
:100B1000012384F85830C5E700225721104806F019
:100B200031FC012384F85830BCE729462046FFF702
:100B300069FF2A460021204606F0E9F8012384F8DF
:100B40005830AFE729462046FFF7F6FE84F85800F4
:100B5000A8E7EB7984F85830A4E700BF3CA5000073
:100B600080A50000E41A0020ACA500002DE9F04F9C
:100B700083B00F4690461E46DDF830900D9D002450
:100B80000CE00CF5C072194B194943F822100CF116
:100B9000010C5FFA8CFCBCF1070FF2D9AC421DD2FC
:100BA000A5EB040ABAF5806F01D94FF4806A534669
:100BB000104AA119384606F0F4FB98B953460D4A7D
:100BC00004EB0901404606F00AFC68B95444074B9F
:100BD00000934FF0000C8DF804C0DCE7002003B058
:100BE000BDE8F08F0120FAE70120F8E7000001409E
:100BF0003546526E481B00202DE9F04184B0044672
:100C000088463D4B1F683D4B43623D4B03654FF0AB
:100C1000FF3600250DE02946002005F098FD2C2325
:100C200005FB03F32033E118C0B200F0E1FE0646F5
:100C30000135012DEFD969462046FFF715FF94F8DD
:100C400058308DF80730042B2ED8022B38D2012BC8
:100C50003CD194F85830FF2B3CD0012B06D06A468B
:100C60000021204606F053F80646A0B9002211469E
:100C70002046FFF709FE0746224B1B6898420AD11F
:100C8000204605F078FF064628B90021204605F0E9
:100C900070FF064618B3204605F074FF06B93E46BD
:100CA000304604B0BDE8F081052B0FD1002006F0DE
:100CB00073F906460028CCD0FF2384F85830C8E7E3
:100CC0006946204606F065F80646C2E7FF2384F829
:100CD0005830BEE745210C4806F054FBFEE71022D1
:100CE0000021684606F00FFD4146204606F02AF82E
:100CF000044B1F68CFE700BF00000020481F002002
:100D000048230020E41A002030A5000008B520B1D7
:100D10006022002106F0F7FC08BD60220021024895
:100D200006F0F1FCF8E700BFE81A002010B5044611
:100D30000020FFF7EBFF21460148FFF75DFF10BDE4
:100D4000E81A00202DE9F04383B00F4615461C46F3
:100D5000DDF82880536A53F830601A68B61A0138F3
:100D600053F83030A3EB02092368012B1BD03A461D
:100D70003146404606F060F8019700964B464246E1
:100D800041462846FFF7F2FE2146284606F022F8A3
:100D900023680133236018B10C4A136801331360D0
:100DA00003B0BDE8F083E368022B04D10B99284619
:100DB00006F046F8DBE74146284606F041F82246B1
:100DC0004146284606F074F8F0E700BF48280020A6
:100DD0002DE9F04383B00F4615461C46566A56F877
:100DE00030203368A2EB0308013856F83060F61A59
:100DF0002A6D52F830101368A1EB03092279012AF9
:100E000005D02279022A1CD003B0BDE8F0833A460F
:100E100031460A9806F010F8019700964B460A9A58
:100E20000B992846FFF7A2FE2146284605F0D2FF7F
:100E3000022323710028E4D0114A136801331360A0
:100E4000DFE73A4649460B9805F0F6FF0197CDF8E3
:100E5000009043460B9A0A992846FFF787FE2146E1
:100E6000284605F0B7FF236801332360012323716F
:100E70000028C9D0024A136801331360C4E700BFD9
:100E80004828002070B582B015461E46002B36D08B
:100E9000436A5C687379012B11D0022B17D00024B0
:100EA000002005F054FC01A9C0B200F0A1FD68B318
:100EB0000124019806F074FA204602B070BD01BB0F
:100EC00032681C4B1B689A42EAD80024E8E7336872
:100ED000012B07D9174A1268934203D899B9002405
:100EE0000121DDE7012B01D00024D9E701B1002465
:100EF0000129D5D13379022BD2D10021D0E70024AA
:100F0000CEE70024CCE700242146C9E720232A4667
:100F10002146019806F045FA044640B9002EC8D093
:100F20002A68054B9A42C4D04FF0FF34C1E7012430
:100F3000BFE700BF040000203DB8F3962DE9F04F55
:100F400085B007460C4601920146002005F0C6FD1B
:100F5000051E5DDBE36D0093384605F0CDFD81464F
:100F60004FF0000B4FF001084FF0FF3A04E0BAF1E8
:100F7000FF3F1DD02546B046002D1BDD6C1E9DF8A1
:100F8000001001230DF10F0204FB0191384606F019
:100F900008FA061E3EDB01220DF10F01384608F06B
:100FA000BBFC0028E3D04645E4D00BF1010BE1E7A0
:100FB000AA46DFE7BBF1010F0EDCBAF1FF3F2DD0EF
:100FC000BAF17F0F0DDC012301994B710AEB03028B
:100FD0000A600B7100201EE04521114806F0D2F98D
:100FE000EBE70223019A5371AAF1800A0AEBDA7344
:100FF0005B1001331360BAF1000F0AF0010AB8BFA9
:10100000CAF1000A0AF1010A82F804A0002002E0F5
:10101000072000E0012005B0BDE8F08F0020FAE7CE
:10102000D8A5000038B5856A446DA54202D0631C7E
:10103000AB4211D1802D15D8002319469C421DD9F1
:10104000426A02EBC3025168026D02EBC3025268AE
:1010500091420DD10133F1E75721114806F092F981
:1010600000200AE057210F4806F08CF9002004E028
:1010700057210D4806F086F9002038BDA5420DD94C
:10108000426A02EBC3035B688B4201D10120F4E7A3
:101090005721054806F076F90020EEE70120ECE73D
:1010A000FCA5000034A6000064A6000000B589B0CD
:1010B00006A9012008F0FEFC9DF81830012B3BD05A
:1010C000032B37D0244B9DF819209DF81A109DF85A
:1010D0001B00029001910092204A4921204806F00D
:1010E00051F904A9022008F0E5FC9DF81030012B0D
:1010F00026D0032B22D0184B9DF811209DF81210FA
:101100009DF81300029001910092164A492114485B
:1011100006F038F99DF81830012B03D19DF81A30EC
:10112000032B0FD04921104806F02CF9002009B0FC
:101130005DF804FB0D4BC6E70D4BC4E70B4BDBE73B
:101140000B4BD9E79DF81030012BEBD04921094812
:1011500006F018F90220EAE790A60000A4A6000015
:10116000B4A60000F8A6000028A700009CA6000076
:1011700094A6000008A7000070B586B00C464B6826
:1011800003F0FF231C498B4204D106461546236811
:10119000012B01D006B070BD04A9104608F03AFC3E
:1011A0009DF81030012B25D0032B21D0134B9DF837
:1011B00011209DF812109DF81300029001910092E9
:1011C0000F4A49210F4806F0DDF89DF81030032B37
:1011D000E0D12946304605F033FE284608F009FCE8
:1011E000A168284605F0B5FC284603F093FED1E738
:1011F000054BDCE7054BDAE70001000490A6000090
:10120000F8A60000B4A600009CA6000094A600006A
:101210002DE9F04184B007460D46904649213E48ED
:1012200006F0B0F800243D4B1C607B6A5E683444D5
:101230003A4A136801331360A045F8D8284605F0F0
:1012400097FD70B1F86D05F044FCBC6A013C0023C9
:101250003344834201D2013CFAE7304B1B68A3427E
:1012600013D203A9012000F0C3FB02A9022000F061
:10127000BFFB029A29463846FFF77EFF6B79012BA8
:1012800014D002236B7101242BE05721244806F06F
:1012900079F8224B1A6804FB06F302FB0662572119
:1012A000204806F06FF80123EB7132E01B4B1C68FD
:1012B00000E0013C8CB12A68184B1B689B1A013373
:1012C0009C42F6D8029B0193039B00932B463A461F
:1012D00031462046FFF736FDEBE701232B60D0E7D0
:1012E00001340E4B1B689C420DD82B689C42F7D3EF
:1012F000029B0193039B00932B463A4631462046BE
:10130000FFF766FDECE7039806F04AF8029806F04E
:1013100047F804B0BDE8F08140A7000004000020B9
:101320006CA700009CA7000008B50B6801330B6098
:10133000014B1B68984708BD08000020014B18604E
:10134000704700BF0800002000B583B002460B467E
:101350000021019101A9034800F0B2F803B05DF843
:1013600004FB00BF291300002DE9F04383B00446BD
:1013700008461546238B13F0080F05D103F0070626
:1013800000230093019369E0012909D043F0200371
:10139000238385F31188BFF36F8F03B0BDE8F0831B
:1013A00043F010032383F4E7204605F08CFE57E05A
:1013B000D4F814904A466946204605F09DFE002761
:1013C0005AE023691F680621204605F055FE4FF0BC
:1013D000000951E023695F680421204605F04CFEB6
:1013E0004FF0000948E023699F680521204605F079
:1013F00043FE4FF000093FE0002246E0002244E0B7
:1014000043F00803238385F31188BFF36F8F00290E
:1014100044D1009B2BB14B4642466946204605F01D
:10142000E2FE17B125492046B8474FF02003EFF3FD
:10143000118583F31288BFF36F8F238B23F008038A
:101440002383238B13F0100F2ED023F0100323835C
:101450000120268B06F0070600289AD00228A3D088
:10146000002896D00128A3D00328AAD00428B1D000
:101470000528B8D00027B946238B03F00708B045EC
:10148000BAD0A268002AB9D001221146002AB7D1E9
:10149000009A002AB4D1002FB2D1D2E74A46414681
:1014A000204605F0F1FDB4E713F0200F04D023F03F
:1014B000200323830220CCE70020CAE71572000036
:1014C0002DE9F04F8FB005468A46079302F1FF3BA6
:1014D000002475E220460FB0BDE8F08F0BF1020B3F
:1014E0000020014603904FF0FF33019302939BF8D5
:1014F00000301A467A2B00F21282DFE813F07B00EC
:10150000100210021002100210021002100210024B
:10151000100210021002100210021002100210023B
:10152000100210021002100210021002100210022B
:1015300010021002100210021002100210027302B8
:1015400010021002730210027D001002100210023D
:101550001002AF00730210027002820010028900B4
:1015600093009300930093009300930093009300E3
:10157000930010021002100210021002100210025A
:1015800010021002100210021002100210021002CB
:1015900010021002100210021002100210021002BB
:1015A00010021002100210021002100210028E012E
:1015B000100210021002100210021002100210029B
:1015C000100210020202DB00100210021002C4001E
:1015D000DB0010021002C4001002100210028E0183
:1015E00010021002F0011002DB00100210028E0146
:1015F0001002C40020466EE751462520A84701345A
:10160000DEE1039B03F0FE0303930023019313E049
:10161000029B002B06DA019B002B03DA039B002BB5
:1016200000F0E281019B002B09DB03EB830302EB5B
:101630004302A2F1300301930BF1010B57E7029B28
:10164000002B08DB029B03EB830302EB4302A2F1B6
:1016500030030293F0E700230293F3E7019B002B92
:1016600005DB079B1A1D07921B680193E4E7079BA4
:101670001A1D07921B680293002BDDDA5B4202936E
:1016800002230393D8E7682B0BD06C2B0ED059B1F3
:1016900051462520A84751469BF80000A847023430
:1016A0008EE16829F1D148231946C5E76C29EED1AE
:1016B0004C23F9E77A290ED06C296BD04C297AD0CB
:1016C000752B00F09080079B1A1D07921B681F4620
:1016D0004FEAE37808E0752B55D0079B1A1D079257
:1016E0001B681F464FEAE3789BF80030752B02D049
:1016F000B8F1000F7EDB202800F085802B2800F059
:101700008780A54E4FF00009CDF814B006940A2248
:10171000002338464146FEF7F3FCCDF8109009F15E
:10172000FF3930320DF1350303F80920BB4644463A
:101730000A22002338464146FEF7E2FC0746884667
:10174000BBF10A0F74F10003E1D2DDF814B0069C7E
:10175000049BC3F10108143308AAD3180493019B16
:10176000002BC0F2EF80029BA3EB0807019AA2EBCB
:101770000809B9F1000F00DD9F1A039B13F0020F57
:1017800040F0F380EAE0079B1A1D07921F684FF0B4
:101790000008A9E7752B07D0079B1A1D07921B6845
:1017A0001F464FEAE3789FE7079B1A1D07921F68C1
:1017B0004FF0000898E7752B0AD0079B073323F0FA
:1017C000070303F1080207921F685B6898468BE7DE
:1017D000079B073323F0070303F1080207921F68F2
:1017E000D3F8048080E7079B1A1D07921F684FF00B
:1017F000000879E77E42374668EB4808029B013BC8
:101800000293664E7EE7029B013B0293644E79E7AA
:10181000029B013B0293634E74E7702B0ED1079B32
:101820001A1D07921B681A46002123BB4FF00508BA
:10183000002301935C4B0493574E90E76C290AD028
:101840004C290ED0079B1A1D07921A6800212328E5
:1018500011D0514E18E0079B1A1D07921A680021FB
:10186000F5E7079B073323F0070303F1080207920C
:101870001A685968EBE79BF8003013F0200F0BD083
:101880004A4E029B023B02939BF8007007F06007F0
:10189000393F4FF0000E14E0454EF2E70EF1FF30F5
:1018A00030330DF1350C0CF80030130943EA0173A5
:1018B0004FEA111C102A71F1000208D386461A461D
:1018C000614602F00F03092BE8D93B44E6E7CEF16D
:1018D00001080EF1140308AAD31804933FE7079BED
:1018E0001A1D07921B680493184605F0B7FE804640
:1018F000019B002B1CDB83421EDB00230193264E41
:101900002DE7079B1A1D07921B688DF820304FF0BA
:1019100001080023019308AB04931F4E1FE75146B3
:101920002520A84751469BF80000A847023447E00D
:1019300000230193184E12E7DDF804800023019381
:10194000154E0CE7039B13F0010F3FF40CAF029B05
:10195000019308E751462020A8470134013FF9D5FB
:1019600003E001365146A847013430780028F8D109
:1019700003E051463020A8470134B9F10109F8D5F8
:10198000049E04E0514616F8010BA8470134B8F153
:101990000108F7D512E000BFC0AD0000E4A80000C8
:1019A000E8A80000ECA80000F8A80000F4A80000D7
:1019B000F0A8000051462020A8470134013FF9D586
:1019C0000BF101069BF8010025283FF487AD0028A4
:1019D0003FF480AD5146A8470134B346F0E70223F7
:1019E000039329E6184627E60123039324E600BF64
:1019F0000F4B1B68B3B130B4002300E001330D4A34
:101A00001268934208DA1A01094C246804EB0315A2
:101A1000A25C9042F2D100E0002535B10D600020BB
:101A200030BC70476FF00C0070476FF00100F7E7B3
:101A30000C00002050A9000000B58BB003AB009350
:101A4000024B05F053FD0BB05DF804FBB1740000D0
:101A5000014910220A60704710ED00E072B6404064
:101A600080F31188BFF36F8FBFF34F8F30BF62B623
:101A7000BFF36F8F704700BF72B6494081F3118882
:101A800020BF80F3118862B6704700BF10B582B0E6
:101A90000446836800934368026845210B4805F0BB
:101AA00071FC636900932369E2684521084805F0E9
:101AB00069FCE2694521074805F064FCA2694521FB
:101AC000054805F05FFC02B010BD00BF54A900003E
:101AD00088A90000BCA90000D0A9000040B20028DD
:101AE00007DB00F01F02400901239340014A42F83E
:101AF0002030704700E100E04209054B53F82220F6
:101B000000F01F00012303FA00F01040704700BFEF
:101B100000E100E0013140B2002808DB4901C9B210
:101B200000F1604000F5614080F80013704700F05C
:101B30000F004901C9B2014B1954704714ED00E080
:101B400030BFFFF7FDBF00BF08B50F4B0F4A22F0B3
:101B50007F029A60BFF34F8FBFF36F8FD3F8882057
:101B600022F47002C3F88820EFF3148323F00403F7
:101B700083F31488BFF36F8F03F0A4FB04F06EFBB4
:101B800000F01AFB03F0FCFB00ED00E00000000099
:101B9000094A9368586709490968996708494B6871
:101BA00043F080534B60002383F31188BFF36F8FA2
:101BB0009368986F704700BF7029002034B200000E
:101BC00000ED00E012498A684FF030001044EFF356
:101BD000098C80E8F01F202080F31288BFF36F8FFC
:101BE0000C4F4FF000668A698A603E60506F002398
:101BF000536780F3118804B5104600F037FBBDE849
:101C0000044002F1300090E8F01F8CF3098870471F
:101C10007029002004ED00E01EF0040F0CBFEFF36C
:101C20000880EFF30980816911F8021C0229FFD0B6
:101C300001B505F0A2FC01BD10B4A2F120040D49CC
:101C400042F8081C21F0010142F8081C42F8203C2F
:101C5000019B42F81C3C029B42F8183C039B42F853
:101C6000143C4FF0807342F8043C04650023436742
:101C700010BC70476F730000114B9A68EAB110F105
:101C8000160F10D0536EA3F1400C844505D8834243
:101C900005D98B4205D800210AE0002108E0002187
:101CA00006E0012104E0536E8B4294BF0021012124
:101CB00009B900207047506E70470020704700BF80
:101CC0007029002008B50D461446084B986000F0B6
:101CD000CDFA204685F30988002163B681F3118887
:101CE000BFF36F8F0022002305F041FB7029002015
:101CF00001B5EFF30580A0F110004FEAC0000449E0
:101D0000014409C99847BDE801400249084700005D
:101D1000A0A10000191D0000044B99689869884231
:101D200003D003494FF080520A60704770290020A9
:101D300004ED00E070B505460E46144645212E48D8
:101D400005F020FB2D4B9B6A13F4805F24D12B4BB5
:101D50009B6A13F4006F24D1284B9B6A13F4007F15
:101D600024D1264B9B6A13F4806F35D1234B9B6A99
:101D700013F4807F35D1214B9B6A13F4005F35D17A
:101D80001E4A936A43F47F4393620121284605F07B
:101D900006FC2070002070BD4521194805F0F2FABC
:101DA000D5E74521174805F0EDFAD5E74521164856
:101DB00005F0E8FA114B9A6B9B6A13F4004FD0D0F0
:101DC0004521124805F0DEFA002ECAD00B4A936A6C
:101DD00023F400439362C4E745210D4805F0D2FA8D
:101DE000C4E745210B4805F0CDFAC9E745210A486B
:101DF00005F0C8FAC4E700BF04AA000000ED00E047
:101E000020AA000038AA000050AA000070AA000012
:101E10008CAA0000ACAA0000CCAA000008B545219D
:101E2000234805F0AFFA234B9B6A13F0007F21D1C2
:101E3000204B9B6A13F0807F21D11E4B9B6A13F4C9
:101E4000002F21D11B4B9B6A13F4802F21D1194BFA
:101E50009B6A13F4003F21D1164B9B6A13F4803F19
:101E600021D1144A936A6FEA03436FEA13439362E2
:101E7000002008BD4521104805F084FAD8E7452127
:101E80000E4805F07FFAD8E745210D4805F07AFAAB
:101E9000D8E745210B4805F075FAD8E745210A48EF
:101EA00005F070FAD8E74521084805F06BFAD8E745
:101EB00000AB000000ED00E020AB000038AB0000FC
:101EC00058AB00007CAB0000A8AB0000C8AB000022
:101ED00008B500230B704521014805F053FA08BDF1
:101EE000F8AB000008B50F2907DC054AA1F1100383
:101EF0004521044805F046FA08BD034AF6E700BF4D
:101F000040AC000058AC000024AC0000F8B5054619
:101F10000C46164645213E4805F034FA3D4B9B6A77
:101F200013F0100F3AD13B4B9B6A13F0080F3AD1D4
:101F3000384B9B6A13F0020F3AD16FF01507354BFF
:101F40009B6A13F0010F4DD1324B9B6A13F0200FA7
:101F50004DD1304B9B6A13F0100F04D12D4B9C6A6E
:101F600014F0020404D02B4B5C6814F4006443D1D9
:101F7000284B9B6A13F0200F04D0264A536A23F49F
:101F80000053536223498B6A43F0FF038B620121A4
:101F9000284605F004FB30702046F8BD45211E4858
:101FA00005F0F0F9BFE745211C4805F0EBF9BFE764
:101FB00045211B4805F0E6F9164B5F6B9B6A13F051
:101FC000800F02D16FF01507B9E73A464521154851
:101FD00005F0D8F9002CB2D00E4A936A23F08003A2
:101FE0009362ACE74521104805F0CCF9ACE74521F8
:101FF0000E4805F0C7F9ACE729463846FFF73CFE26
:1020000004460028B4D080F309880224B0E700BF5A
:1020100070AC000000ED00E08CAC000038AA0000BD
:10202000C4AC0000E4AC000000AD0000CCAA00008D
:1020300070B506460D464521274805F0A3F9002353
:102040002B70264BDC6A14F0020409D1234BDB6AA7
:10205000002B0BDB214BD86A10F080400CD170BDF7
:1020600045211F4805F08EF90020F8E745211D485D
:1020700005F088F92046F2E745211B4805F082F972
:10208000B36933F8022C4DF602739A420DD0134B0C
:1020900093F8283083B9114B93F8293093B90F4B3B
:1020A0005B8D9BB2A3B92046D9E7326845210F4822
:1020B00005F068F93068D2E72A4601213046FFF77B
:1020C00025FFCCE72A4601213046FFF733FEC6E75D
:1020D0003046FFF7A3FEC2E724AD000000ED00E0AC
:1020E00040AD000068AD00007CAD0000A0AD000078
:1020F00070B58AB0254B5D68C5F30805002383F3EE
:102100001188BFF36F8F02F07F43B3F17F4F1ED171
:1021100002F00C03082B10D012F0080F14D00C465C
:1021200000260DF127022946204605F03AFA054619
:102130009DF8273073B10AB070BD4521144805F0F1
:1021400021F900263446ECE704460126E9E700269B
:102150003446E6E72022214601A805F0A5FA4EB153
:10216000089BC3F308025AB96FEA53236FEA43236B
:10217000089305E0089B23F4FF7323F00103089301
:1021800001A9284605F0EDF9D5E700BF00ED00E014
:10219000C4AD0000024A536943F010035361704715
:1021A00000ED00E0EFF30880EFF3098101B572461E
:1021B000FFF79EFF01BD00BF002206E002F00F0105
:1021C000094B0B442021197601322F2A0ADC53B225
:1021D000002BF3DB03F1604303F56143202183F817
:1021E0000013F1E7704700BFFCEC00E007F05AFF76
:1021F000202080F3118808484FF40461401880F3D0
:102200000988EFF314800221084380F31488BFF398
:102210006F8FFFF799FC00008053002008B50A4B30
:102220009B68834202D003F0CDFF08BDEFF3058326
:10223000002BF8D0054B5A6842F080525A605A6A17
:1022400022F400425A62EEE77029002000ED00E01F
:1022500008B5034B034A0121034805F0F7F908BD0F
:102260000000042000000020F8AD000008B5436E17
:10227000403B0548036040234360044B83600121D9
:1022800005F0E8F908BD00BF4C28002000000B1540
:10229000084AC2F898000B6823F01F03034343F079
:1022A0001003C2F89C308B6843F00103C2F8A030E1
:1022B000704700BF00ED00E010B50446072803D8C2
:1022C000FFF7E6FF204610BD02464521024805F013
:1022D00059F86FF01500F6E704AE00002DE9F84359
:1022E00080460F4699461646002509E02146F0B281
:1022F00005F08DF9064610F1160F19D0013601359B
:10230000BD4215DA05EB450408EB84046268002A37
:10231000F5D0B9F1000FE9D0204605F067F90028A3
:10232000E4D12A464521044805F02CF86FF0150643
:102330003046BDE8F88300BF30AE000010B5034C56
:1023400001232278FFF7CAFF207010BDAE290020BC
:1023500008B50023094A1278FFF7C0FF10F1160FE5
:102360000AD0034606E0064AC2F898300021C2F8B7
:10237000A0100133072BF6DD08BD00BFAE290020F9
:1023800000ED00E0044B0522C3F89420BFF34F8F0B
:10239000BFF36F8F704700BF00ED00E0BFF35F8FAA
:1023A000024B0022C3F89420704700BF00ED00E00C
:1023B00038B50E4B1D68082D15D8FFF7EFFF002428
:1023C00009E00A4B596804EB440293001944204683
:1023D000FFF75EFF0134A542F3D8054B1D70FFF7F0
:1023E000D1FF002038BD4FF0FF30FBE768AE0000A2
:1023F000AE290020014B1860704700BF100000207C
:102400004FF02003EFF3118283F31288BFF36F8F35
:1024100001230649C1F840354FF08041C1F87835B5
:1024200082F31188BFF36F8F0020704700E00140F6
:1024300030B108B58001034B43F00103984708BD54
:10244000704700BF90A3000000487047A8280020F4
:10245000034BC01A8010034B03FB00F0704700BF12
:1024600068280020B76DDBB638B505460C46FFF787
:10247000EFFF01464022034805F0DDF901462846FA
:10248000A04738BD10A1000030B583B005460C460A
:10249000FFF7DEFF0146402300932346054A064826
:1024A00005F0E3F9011E01DB03B030BD2846A0476B
:1024B000FAE700BFB378000010A1000010B54FF09C
:1024C0002003EFF3118483F31288BFF36F8F134A55
:1024D000136843F00203136013F0010F08D10023C7
:1024E00084F31188BFF36F8F9BB905F0EAF910BD33
:1024F0004FF08043D3F80C24D3F80C3412F0010FC2
:1025000001D10023ECE7FFF79FFF05F06FF90123EE
:10251000E6E70021024805F07CF9E8E7B82800204A
:1025200010A1000008B50A4BBFF35B8F53E8002FE2
:1025300022F0020143E800100028F7D1BFF35B8FBF
:1025400012F0010F00D008BD05F0C5F9FBE700BF90
:10255000B828002000B585B0CDF800D0CDF804D063
:1025600000230293012303936B46074A05F099F970
:10257000002805DB4FF480420023684603F0B6F8DC
:1025800005B05DF804FB00BFE178000070B50546BA
:10259000002201211046FFF7BDFA134801F036FB77
:1025A000124B98421CD1286900F098F905F048FCBC
:1025B0000024012C12D82146284605F0C5F806460D
:1025C0002146284605F0CDF8094904F031FE0028DF
:1025D00005DB0123B3601C44E4B2EAE7002070BDD0
:1025E0006FF00400FBE700BFF52500000000AD0B15
:1025F000E8AE000008B5012810D0032815D000B1BE
:1026000008BD00210A4805F09FF8836813F0070F02
:10261000F6D10021064805F0FCF8F1E705F07FF956
:102620000121034805F0F5F8EAE700F06DF9E7E766
:1026300010A1000070B5054607F090FA20B9214BB3
:102640001B789BB1002300E001231C4683B14FF0AF
:102650002003EFF3118683F31288BFF36F8F6CB9F9
:102660004FF080430222C3F8082307E00123ECE780
:102670000026F4E7CCB13046FFF7FEF94FF0804278
:10268000D2F8183403F00303D2F8182412F4803F70
:1026900010D10022002AEDD00BB1012DEAD15CB19E
:1026A00086F31188BFF36F8F70BD2120002103F0E6
:1026B00057FDE3E70122EDE74FF080430222C3F824
:1026C0000423F1E7B129002008B5C1B2014805F0A3
:1026D00048F808BD10A1000010B50446104B0121B8
:1026E000BFF35B8F53E8002F43E800100028F9D1B7
:1026F000BFF35B8F1AB1631E012B0DD910BD0948C2
:1027000005F02FF8084900234B608B60CB60012354
:102710008B6004F0AAFDEEE72046FFF78BFFEDE7A4
:10272000BC28002010A100005828002010B582B05D
:1027300004460E4B18688368DB683921984730B926
:102740000A4B186883681B696A460C21984750B980
:10275000019B074A82FB0312DB17C3EB2243009A5B
:1027600003EB8203238002B010BD00BFD8280020F5
:1027700083DE1B4308B5024B186805F0BDF808BDA1
:10278000D428002000B583B000220023CDE9002327
:102790004FF400320023054803F03EFFFFF7EAFF45
:1027A000034B00221A6003B05DF804FBE000002038
:1027B000C028002008B501F03DFA024B01221A7032
:1027C00008BD00BFAF29002008B5054B1B681BB131
:1027D000044803F0D5F808BDFFF7ECFFFBE700BFA6
:1027E000D82800201400002000B583B00023ADF8E5
:1027F00006300DF10600FFF799FF80B10023124A61
:102800001370114A12780AB1012B13DD0F4BBDF87A
:1028100006201A80FFF7CEFF03B05DF804FBBDF978
:1028200006300A4AB2F900209B1A002BB8BF5B425F
:102830001BB2E6E7013A044B1A70054A13680133EC
:102840001360FFF79FFFE7E7AF290020AC290020C6
:10285000E028002008B5034A0349044B186805F036
:102860004FF808BDC9270000C4280020D428002044
:1028700008B5094B0122BFF35B8F53E8001F002905
:1028800003D143E800200028F7D1BFF35B8F01D1CB
:10289000FFF7E0FF08BD00BFC028002008B5034BCC
:1028A00000221A70FFF7E4FF08BD00BFAF29002027
:1028B00008B50748074B186007F023F908B1002056
:1028C00008BD4521044804F05DFD6FF01200F7E7F4
:1028D00088A10000D8280020F4AE0000034B186047
:1028E0000023034A1360034A13607047D428002072
:1028F000DC280020E028002008B5024807F0B6FBDD
:1029000008BD00BFE000002008B5034A136801338A
:102910001360FFF737FF08BDDC28002010B5044620
:102920000A2807D0074B1868E1B283685B689847AC
:10293000204610BD034B186883685B680D219847DB
:10294000F0E700BFE428002010B5044C2046FFF754
:1029500051FD2046FEF7F2FC10BD00BF1D2900000E
:1029600008B50648064B186007F0CBF818B1FFF71A
:10297000EBFF002008BD6FF01200FBE758A100003C
:10298000E428002028B1012801D103487047002025
:1029900070470248704700BF28A1000040A1000016
:1029A000F0B585B00E46194643681B7B06F01F053F
:1029B00045EA4315B2F5001F22D00746144600230E
:1029C00002930393104605F027F88DF808007B6802
:1029D0009968F14011F0010F02D1B4F1A07F14D039
:1029E000002302AA1946284601F0CEFB1B4B984251
:1029F00031D10121284601F0A5FD002005B0F0BD30
:102A0000284601F003FE0020F8E705F01F036A09DD
:102A1000012A14D04FF0A04203F5E07352F823309E
:102A200013F0010FDCD10DF10701284601F02EFD56
:102A30000B4B984205D00DF107030393D0E7094AE9
:102A4000EAE70DF1070001F075FD044B9842F2D062
:102A50006FF00B00D2E76FF00400CFE70000AD0B82
:102A60000400AD0B0003005030B583B004460DF1F7
:102A7000070101F00BFD0546204601F0F7FD0B4B69
:102A800098420FD19D4205D0084B984207D10020B3
:102A900003B030BD9DF8070001F044FDF4E76FF08E
:102AA0000400F5E76FF00400F2E700BF0000AD0B93
:102AB0002DE9F04387B0D0F8048098F80C3001F08D
:102AC0001F0444EA4314002A44D00E46174600254A
:102AD000039504950DF11701204601F0D7FC8146BE
:102AE0002B4603AA2946204601F04EFB304B984264
:102AF0005BD1994536D017F4003F43D00DF1030167
:102B0000384604F010FF054640BB9DF803308DF8B1
:102B1000043017F4803F0CBF012300238DF80530EB
:102B2000384604F046FF8DF8060017F4002F1ED03B
:102B3000D8F80430012101FA06F6C3F8086500222E
:102B400001A9204601F0D8FB194B984206D06FF03E
:102B5000150503E02046FFF787FF0546284607B026
:102B6000BDE8F0839DF8170001F0DCFCC3E717F423
:102B7000802FE4D0D8F80420012303FA06F6C2F827
:102B80000C65DCE7384604F014FF8DF808000023DC
:102B90001A4602A9204601F0F7FA054B984201D1E6
:102BA0000025DBE76FF01505D8E76FF01505D5E7D1
:102BB0000000AD0B08B501F0ABFC08B1002008BD6A
:102BC00001F07CFC084B98420AD10021074801F033
:102BD00057FC002205210620FEF79CFF0020EEE7AF
:102BE0006FF00400EBE700BF0000AD0BB77A000008
:102BF000014B01221A60704700C0004003690C2994
:102C000010D15B6A094901FB03F3094880FB0310FB
:102C1000D917C1EBA0411160064800FB1133536086
:102C2000002070476FF08500704700BF90D0030010
:102C300083DE1B4340420F002DE9704384B00469DA
:102C4000A36A7BB3392901D00C292ED104F11006D7
:102C50004FF0FF384FF0FF3942464B46304602F006
:102C60005BFC0025019502950395114B019303230D
:102C700002936946A06A04F0F8FA42464B462046A1
:102C800002F034FDA06A04F04CFB0A4BD3F808258F
:102C9000626201225A60304602F0C8FC284604B045
:102CA000BDE870836FF00A00F9E76FF08500F6E782
:102CB000F12B000000C0004010B504690020FFF7B0
:102CC00003FDA0624FF0FF320021204606F0ABFF6B
:102CD00004F1100006F0A0FF002201210C20FEF7F5
:102CE00019FF0C20FEF7FAFE024B0122C3F8042361
:102CF000002010BD00C0004008B50069044B002250
:102D0000C3F80021D3F8003102F0CEFC08BD00BFAB
:102D100000C00040034BD3F8003413F0010FF9D08A
:102D2000704700BF00E00140024B0B6001231360BD
:102D3000704700BF2C2900200048704720B00000D9
:102D400008B504F0DCFE48B34FF08043D3F81035EB
:102D500013F00102D2B2C3F3430321D04FF08040FD
:102D6000D0F8101521F01F014FEA430C41EA43034C
:102D7000C0F81035D0F808311BB90A4B1A70002082
:102D80000DE0D0F8103523F01F034CF0010C43EA9E
:102D90000C03C0F810356FF08B0000E0002008BD78
:102DA0000020FCE7B02900200A4B1B788BB14FF0C4
:102DB0008041D1F81025D1F8103523F01F0302F01F
:102DC0001E0242F001021343C1F81035014B0022EC
:102DD0001A707047B0290020F8B50D46164605F068
:102DE000DCF8044605F0D5F8002D06DBA84215D91D
:102DF000401B864214D9002300E0002363B3B5FBD7
:102E0000F4F304FB13536BB9B6FBF4F304FB136345
:102E100043B9B4420FD900242046F8BD0023EDE7A2
:102E20000123EBE733462A464521104804F0AAFA6D
:102E30006FF01504F0E70E4F4FF0FF324FF0FF3305
:102E4000384602F053FC3146284604F088FE04461A
:102E5000384602F029FCDFE733462A46452105487B
:102E600004F090FA6FF01504D6E700BF94AF0000AD
:102E700034290020B8AF000010B5012211460648E1
:102E800006F0D1FE05F08DF8044C206005F085F8C1
:102E90006060002010BD00BF342900202C290020D4
:102EA00070B50C4616461D4605F073F8002C06DB7F
:102EB000A04209D9001B854208D9002300E0002365
:102EC00033B175B9002070BD0023F9E70123F7E79E
:102ED0002B4622464521064804F054FA6FF01500AF
:102EE000F1E72A462146304604F0DEFB0020EAE7FF
:102EF000B8AF0000F8B50C4616461D4605F049F877
:102F0000002C06DBA04210D9001B85420FD90023FC
:102F100000E000236BB114F0030F13D115F0030F81
:102F200010D1C5B900242046F8BD0023F2E70123E3
:102F3000F0E72B4622464521104804F023FA6FF0B3
:102F40001504F0E72B46224645210D4804F01AFAF5
:102F50006FF01504E7E70B4F4FF0FF324FF0FF33F0
:102F6000384602F0C3FB2A463146204604F021FED3
:102F70000446384602F098FBD5E700BFB8AF000022
:102F8000DCAF00003429002010B4436800297DD153
:102F90001A68B2F1FF3F17D002F01F015209012A4F
:102FA00064D04FF0A04001228A40C0F808251A687A
:102FB00002F01F015209012A5AD04FF0A04001F53A
:102FC000E072032140F822105A68B2F1FF3F0FD09F
:102FD000197C00294ED0032002F01F015209012A5A
:102FE0004AD04FF0A044800001F5E07244F822007E
:102FF0009A68B2F1FF3F17D002F01F015209012A6F
:103000003CD04FF0A04001228A40C0F808259A68C1
:1030100002F01F015209012A32D04FF0A04001F501
:10302000E072032140F82210DA68B2F1FF3F0ED0BF
:10303000597C39B3032002F01F015209012A23D021
:103040004FF0A044800001F5E07244F822001968B6
:103050005868334AC2F81405C2F80C159968DB6841
:10306000C2F80815C2F8103510BC70472D489AE711
:103070002C48A4E70020AFE72A4CB4E72948C2E770
:103080002848CCE70020D6E7264CDBE71A68B2F1E7
:10309000FF3F0BD002F01F015209012A37D04FF039
:1030A000A04001F5E072022140F822105A68B2F106
:1030B000FF3F0BD002F01F015209012A29D04FF027
:1030C000A04001F5E072022140F822109A68B2F1A6
:1030D000FF3F0BD002F01F015209012A1BD04FF015
:1030E000A04001F5E072022140F82210DA68B2F146
:1030F000FF3FACD002F01F015209012A0DD04FF062
:10310000A04001F5E072022140F822109FE7054837
:10311000C7E70448D5E70348E3E70248F1E700BF03
:103120000020004000030050034BD3F81C0100387E
:1031300018BF0120704700BF00200040034B002251
:10314000C3F81C21D3F81C31704700BF0020004099
:10315000B1F5164F6DD03BD8B1F5165F6BD00AD9DB
:10316000B1F5E14F72D025D947F6122399422CD1FF
:103170004FF4000313E0B1F5966F5ED007D9B1F5B7
:10318000166F60D0B1F5965F11D13A4B07E0B1F5FB
:10319000967F55D0B1F5167F06D14FF41C33364AD1
:1031A000C2F82435002070476FF0150070476FF0AB
:1031B00015007047B1F5615F4AD0B1F5964F01D166
:1031C0002E4BECE76FF0150070476FF0150070475D
:1031D000B1F5613F3FD009D9B1F5612F42D01DD97A
:1031E000274B994243D14FF08053D8E7B1F5963F32
:1031F00033D004D9B1F5E13F0DD1224BCFE74DF6E5
:10320000C02399422BD0B1F5614F01D11E4BC6E7C7
:103210006FF0150070476FF0150070471B4B994217
:1032200022D0B1F5E12F01D1194BB8E76FF01500AD
:103230007047184BB3E7184BB1E74FF49E23AEE746
:103240004FF4A033ABE74FF41D23A8E7134BA6E7D9
:103250004FF46C13A3E7124BA1E7124B9FE74FF417
:1032600065039CE7104B9AE74FF0806397E76FF098
:103270001500704700B013000020004000A04E0071
:1032800040420F0000E0D70100F0EB0090D00300B7
:1032900000705F0700509D000050270000F075008F
:1032A00000B0AF0300903A0100D0BE0E084BD3F837
:1032B00008314BB1064B0020C3F80801D3F80821B0
:1032C000D3F818350B7070474FF0FF30704700BFD0
:1032D00000200040024BD3F88004C3F880047047FC
:1032E0000020004030B583B00C4605694B79012BB6
:1032F00006D0032B0FD06FF08503184603B030BD06
:1033000000238DF80630A379032B2AD1E37933B15A
:103310006FF08503F1E710238DF80630F3E78DF8A1
:103320000430237923B1022B17D06FF08503E4E733
:1033300000238DF805302168FFF70AFF034698B98E
:103340009DF805209DF806100A430949C1F86C252F
:1033500094E8030085E80300CFE70E238DF80530DD
:10336000E9E76FF08503C8E76FF08503C5E700BFA5
:103370000020004038B50446056900210A4BC3F817
:103380000015FFF701FE29462046FFF7ABFF50B9B5
:10339000054B0422C3F800250022C3F80821D3F806
:1033A000082101221A6038BD0020004038B50C46C3
:1033B00006F0D4FBC0B96425194B0122BFF35B8F23
:1033C00053E8001F002903D143E800200028F7D16B
:1033D000BFF35B8F0BD02120002102F0C1FE013D25
:1033E00015F0FF05E8D102E00D4B01221A60FFF74E
:1033F000A5FE0C4B01229A60C3F81C454FF47A7469
:10340000FFF792FE20B9012004F003FD013CF7D143
:10341000044B0122DA60024B00221A6038BD00BF63
:10342000442900200020004021F07F4100F5A870D1
:10343000014B43F8201070470010014000F5A870C0
:10344000014B53F820007047001001404FF48033C7
:103450008340024AC2F84433704700BF0010014065
:103460004FF480338340024AC2F84833704700BFAC
:1034700000100140014BD3F80405704700100140D3
:1034800010B5012383406FEA030C104ABFF35B8F32
:1034900052E8001F01EA0C0E42E800E4002CF7D1CC
:1034A000BFF35B8F4FF4803202FA00F002F18042EA
:1034B00002F58052C2F80803BFF35F8FBFF36F8F2E
:1034C0000B4214BF0120002010BD00BF4C2900207A
:1034D00070B5044604F0BEFB05464FF48033A340AC
:1034E000174AD2F80423134205D10026284604F0D7
:1034F000BAFB304670BD0123A340DB43114ABFF342
:103500005B8F52E8001F01EA030042E80006002E2C
:10351000F7D1BFF35B8F59B904F150039B009BB205
:1035200003F1804303F588331B6813B1012300E0E6
:1035300001231E46002BD9D0204604F07CFBD5E7A2
:10354000001001404829002001B970470123834041
:10355000114ABFF35B8F52E8001F194342E8001C79
:10356000BCF1000FF7D1BFF35B8F4FF48033834082
:103570000A4AC2F80433BFF35B8F094B1B68BFF3E1
:103580005B8F23FA00F010F0010FDED0054B4FF4F3
:103590000032C3F80021D8E74C2900200010014078
:1035A0004829002000E100E02DE9F84307461446D1
:1035B0001E461046194604F04AFB0546154B1A688C
:1035C000A01A1C605E60A5F50013B3F5400F09D387
:1035D000002402F031FF3846FFF730FFA8420ED03A
:1035E000BDE8F8830C4B1B681A0A1B0615EB030891
:1035F00042F10009094BC3E900890124E9E71CB144
:103600003846FFF723FFEBE74FF400013846FFF79A
:103610000BFFF5E7300100205029002018010020A1
:1036200038B50D4B1C68250A2406BFF35F8FFFF7E2
:1036300021FF0346001945F10001B3F5801F0AD2AE
:10364000064BD3E90023904271EB030303D210F140
:10365000807041F1000138BD502900201801002080
:10366000F8B5064614461D461046194604F0EFFA12
:103670000746FFF7D5FFA04271EB05031DD2231AC1
:1036800065EB01011B4A934271F100032FD21A4BE3
:1036900003EB0613D3E90223AB4208BFA2421AD0C0
:1036A0003946304604F0E4FA394604F0C0FA00190D
:1036B00045F1000304461D460DE00123B3400F4AC7
:1036C000BFF35B8F52E8001F194342E80010002847
:1036D000F8D1BFF35B8F084B320103EB0616C6E946
:1036E000024506999950079B73600020F8BD6FF062
:1036F0001500FBE7010000012001002048290020FF
:1037000030B583B000231D4AC2F80835002B24DDF4
:103710001A4C0225C4F80453194B4FF40032C3F875
:103720008021002201211120FEF7F4F91120FEF77B
:10373000D5F90123A3602360124A13600024019489
:10374000114B0093114A0023204604F0CCFA28467E
:10375000FEF7C2FF204603B030BD0D4A02EB031254
:103760004FF0FF304FF0FF31C2E902014FF48032D9
:103770009A400249C1F804230133C7E70010014011
:1037800000E100E04C290020A9350000FFFF7F0088
:10379000200100202DE9F04782B00446FFF798FE93
:1037A00010B902B0BDE8F087FFF73AFF82460E4637
:1037B00004F050FA0546134B03EB0413D3E90289D6
:1037C000C24576EB09030BD20026284604F04BFADB
:1037D000002EE6D0009742464B462046B047E0E731
:1037E000084A230102EB0411D6584F680020D0503C
:1037F0004FF0FF324FF0FF33C1E902232046FFF7BD
:103800002FFEE2E72001002010B50E4BD3F8043361
:1038100013F0020F0DD00B4BD3F804314BB1094B11
:103820000022C3F80421D3F80431074A1368013396
:1038300013600024002C00DD10BD2046FFF7AAFF16
:103840000134F7E7001001405029002010B582B084
:10385000B0F1FF3F06D0012806DDB0F5000F05DA14
:10386000441E04E00F48F8E7002400E00D4CFFF789
:10387000D7FE0D4B19685B68401AB0F5000F00D3F6
:1038800000242044421CB2F5000F00D3054A00205A
:103890008A1801900549009143F1000304F023FACE
:1038A00002B010BDFFFF7F0030010020A9350000ED
:1038B00008B5FFF7B5FE024B1B68C01A08BD00BF74
:1038C00030010020024BD3F80034002BFAD07047AF
:1038D00000E0014008B5034BC3F80405FFF7F2FF11
:1038E00008BD00BF00E00140014B024A1A6070476A
:1038F0002C0000200090D00338B504F00DFA40B140
:103900004FF080430022C3F80C21C3F81021C3F804
:10391000382504F00BFA002846D04FF08052D2F838
:103920000414594BC3F82015D2F80814C3F8241511
:10393000D2F80C14C3F82815D2F81014C3F82C15BB
:10394000D2F81414C3F83015D2F81814C3F834158B
:10395000D2F81C14C3F84015D2F82014C3F844154B
:10396000D2F82414C3F84815D2F82814C3F84C151B
:10397000D2F82C14C3F85015D2F83014C3F85415EB
:10398000D2F83414C3F86015D2F83814C3F86415AB
:10399000D2F83C14C3F86815D2F84014C3F86C157B
:1039A000D2F84424C3F8702504F0CAF918B1374B93
:1039B000374AC3F88C2604F0D6F918B1354BFB22F0
:1039C000C3F8182504F0E2F970B14FF08041D1F846
:1039D000E43E23F00F034FF08052D2F8582202F059
:1039E0000F021343C1F8E43E04F0E3F920B12A4B7F
:1039F0004FF40072C3F8402604F0EEF960B14FF0C6
:103A00008043D3F8003413F0010F05D04FF080430A
:103A10006FF00102C3F8002404F0E8F938B14FF068
:103A20001023D3F808224FF08043C3F858254FF0F5
:103A30001023D3F80032002B08DB4FF01023D3F80B
:103A40000432002B02DBFFF74FFF38BD0120FFF7E8
:103A500041FF4FF010241225C4F80052FFF732FF47
:103A6000C4F80452FFF72EFF0020FFF733FFBFF327
:103A70004F8F0A49CA6802F4E062094B1343CB60D6
:103A8000BFF34F8F00BFFDE700C000400050004073
:103A90004881030000F000400090024000ED00E08B
:103AA0000400FA0510B50468B4FA84F3C3F11F03E7
:103AB0005FFA83FC002B16DB012202FA03F324EAEF
:103AC0000303BFF35B8F50E8002FA24204D140E80C
:103AD000003EBEF1000FF6D1BFF35B8FE3D181F85A
:103AE00000C0024810BD0248FCE700BF0000AD0B5B
:103AF0000200AD0B0368CB4013F0010F15D100B5E8
:103B0000026801238B401343BFF35B8F50E800CF63
:103B1000944504D140E8003EBEF1000FF6D1BFF35A
:103B20005B8FEDD102485DF804FB0248704700BF8F
:103B30000000AD0B0400AD0B70B582B0054618B1A6
:103B4000012816D002B070BD4FF080430222C3F8A6
:103B500008230022C3F80421D3F804210122DA60EB
:103B600001238DF807309D420FD0002642F21074D9
:103B700029E04FF080430122C3F808230021C3F855
:103B80000011D3F800115A60EAE70DF10706EDE7DE
:103B900036B14FF08043D3F8183403F00303336099
:103BA0004FF08043D3F8183413F4803F22D1002320
:103BB00023B31EB19DF80730012B1FD1012004F063
:103BC00028F9013C1AD0002DE2D0012D01D00023AC
:103BD000EEE736B14FF08043D3F80C3403F0010325
:103BE00033704FF08043D3F80C3413F4803F03D18B
:103BF0000023DDE70123DBE70123D9E7012DA1D174
:103C0000014B00225A719DE754290020064B1B7975
:103C100043B9054B00229A711860012119715A713C
:103C20000248704702487047542900200000AD0B3D
:103C30000C00AD0B4FF08042D2F80C3403F00103BE
:103C4000D2F80C2412F4803F04D100221AB31BB91D
:103C5000144870470122F9E74FF08043D3F8183435
:103C600013F4803F00D10022BAB10F4B9B79B3B956
:103C70004FF080430022C3F80C21D3F80C21082216
:103C8000C3F80423012208498A710221C3F8341CB5
:103C90001A61064870470348704702487047044855
:103CA000704700BF0500AD0B542900200000AD0B8C
:103CB0000B00AD0B08B54FF08043D3F800318BB14A
:103CC0004FF080430022C3F80021D3F800210122E5
:103CD000C3F808231C4B5B7923B91B4B5A711B6833
:103CE000002098474FF08043D3F804316BB14FF078
:103CF00080430022C3F80421D3F804210222C3F830
:103D00000823114B1B68012098474FF08043D3F8DC
:103D10000C31BBB14FF08043D3F8043313F0080FDC
:103D200010D04FF080430022C3F8342CC3F80C218C
:103D3000D3F80C110821C3F80813034B9A711B68C0
:103D40000320984708BD00BF542900200830034BCA
:103D500033F8100000F00100704700BF3000002071
:103D60000830034B33F81000C0F34010704700BF19
:103D7000300000200830044B33F8100010F01C0015
:103D800018BF0120704700BF300000200830034BEF
:103D900033F81000C0F34000704700BF300000202F
:103DA0000830024B33F81000400B70473000002001
:103DB000002204E04FF0FF3383420FD001322F2A5C
:103DC0000AD802F10803064931F8133013F4807F52
:103DD000F0D0C3F34323EFE7002070470120704782
:103DE00030000020002313B14FF0FF307047074A26
:103DF00052F83320824201D00133F4E7034A02EB48
:103E0000C30252688A42F7D118467047300000203A
:103E10000830064B33F8100010F4807F04D0C0F354
:103E2000432003EBC00070470020704730000020A3
:103E300070B504460D46FFF7EBFF20B106684268F7
:103E400029462046B047044B9B6823B1024AD268FA
:103E500029462046984770BD3000002000F1080236
:103E60000E4B33F8123013F4807F16D010B5C3F325
:103E70004324104623F4F853084A22F81030204611
:103E8000FFF796FF00B110BD0448002340F834301E
:103E900021467430FFF72EFEF5E770473000002012
:103EA00010B50446FFF75CFF40B12046FFF778FFEE
:103EB00000F5A270064B002243F820202046FFF7B1
:103EC000CDFF0834034B002223F8142010BD00BF9F
:103ED000006000403000002070B582B006460C46FD
:103EE0001546FFF7BBFF24B329462046FFF77AFFAC
:103EF000031E13DB104A42F8334002EBC3014D604E
:103F00005B029BB206F1080032F810100B4343F439
:103F1000807322F81030094802B070BD0DF107011E
:103F20000748FFF7BFFD054B9842F5D19DF80730D4
:103F3000E0E70248F0E700BF300000200000AD0BD2
:103F4000A400002038B5044618E094FAA4F3B3FAAC
:103F500083F301229A4024EA02040A4A03F5A27379
:103F600052F82350C5F3052552F82300C0F3014051
:103F700003F0DFFF01462846FFF75AFF002CE4D18B
:103F800038BD00BF0060004082B08446114B93E80A
:103F9000030002AB03E90300604600230BE002AA22
:103FA00002EB830252F8082CD2F8201540F8041BCB
:103FB000C2F820150133012BF1D90023012B04D8BD
:103FC0005CF8232022B90133F8E7002002B07047E3
:103FD0000120FBE780A3000070B504460D4616469D
:103FE000084603F0A8FFD0B9022E52D0022004F0F8
:103FF0001F02610901294ED04FF0A04102F5E07285
:1040000051F8223023F4403343EA004341F8223090
:10401000032D44D0022E40D0032E45D070BD29463A
:104020002046FFF705FF04F01F036209012A2AD08A
:104030004FF0A04203F5E07352F82330C3F301437D
:104040009E42EBD104F01F036209012A1DD04FF0FC
:10405000A04103F5E07351F8232022F4403241F8E7
:10406000232004F01F036409012C10D04FF0A0415D
:1040700003F5E07351F8232022F4403242EA064669
:1040800041F82360CAE70A4AD4E70949E1E7084949
:10409000EEE70320ABE70649B0E7012DBCD1294686
:1040A0002046FFF7C5FEB9E7022DB7D1F7E700BFFD
:1040B0000003005070B584B02F4A6B4692E80300AD
:1040C00083E80300002302A80BE004AA02EB8302AA
:1040D00052F8102CD2F8201540F8041BC2F8201515
:1040E0000133012BF1D942E0244E05F5E07356F877
:1040F0002320C2F30142FFF76FFF0123AB40C6F854
:10410000203504AB03EB840353F8080C10B390FA8A
:10411000A0F0B0FA80F000EB441000F10802184B58
:1041200033F81210C1F38201C50800F007020DF147
:10413000080C012303FA02F21CF8053023EA0203FB
:104140000CF8053000F01F054309012BCCD04FF0CF
:10415000A046CAE70134012CD3D90A4B0022C3F888
:104160007C21D3F87C3102A8FFF70EFF08B10024B0
:10417000F1E704B070BD00BF80A300000003005051
:1041800030000020006000402DE9F0410446154653
:104190001E4671B30F4603F0B6FE002840F099802A
:1041A00004F01F026309012B45D04FF0A04002F537
:1041B000E07350F82330002F3FD00C2141F0030171
:1041C00023EA0103002F3AD0397889000B4302F526
:1041D000E07240F82230434A04F1080132F811300D
:1041E00023F002039BB222F8113043F0010322F8BE
:1041F0001130BDB12F78D5F804802046FFF7C6FDF9
:10420000F8B1B8F1000F66D1364A04F1080132F86E
:10421000113023F01C039BB222F8113043EA8703CC
:1042200022F81130002E5AD0726831682046FFF70C
:1042300053FEBDE8F0812C48B9E70021BEE700211C
:10424000C4E7284A04F1080132F8113023F02003B2
:10425000DB04DB0C22F81130B8F1000FD4D0032FAF
:104260003BD86B681D7837B905F5A2751F4B002246
:1042700043F82520C8E7384603F05CFE1B4B05F5E4
:10428000A27253F8221021F0030143F8221053F8D0
:10429000221021F44F3121F4407143F8221053F8D9
:1042A00022C0210201F47C51000400F4403001439B
:1042B0004CEA010143F822106B039BB2094A04F156
:1042C000080132F81100034343F0200322F81130B3
:1042D0009AE70748ADE70648ABE70548A9E7054870
:1042E000A7E700BF3000002000030050006000403E
:1042F0000400AD0B0000AD0BF8B5044615460029CF
:1043000055D00E4603F00EFE28B12046FFF728FDDB
:10431000002840F0A2802046FFF72CFD18B17378EA
:10432000012B00F09C8006F1010CB71C04F01F0269
:104330006309012B57D04FF0A04102F5E07351F80B
:104340002300BCF1000F50D0022343F00103002FE3
:104350004DD04FF00C0E43EA0E03002E4AD04FF41E
:10436000E06E43EA0E0320EA0300BCF1000F44D0E4
:1043700073785B0043F00103002F40D096F802C031
:104380004FEA8C0C43EA0C03002E3BD03678360201
:104390003343034302F5E07241F82230334A04F11B
:1043A000080132F8113043F0030322F81130002DD8
:1043B00057D0204603F0B6FD002854D12B7803F5E2
:1043C000A2712B4A42F82100284904F1080031F873
:1043D000102022F02002D204D20C21F810206A789A
:1043E00092B92448F8BD2449A7E70023ADE74FF070
:1043F000000EB0E74FF0000EB3E70023BAE74FF02E
:10440000000CBFE70026C3E7AF78194803F5A27593
:1044100050F8251021F4991121F4F85140F8251095
:1044200050F82560210201F47C51120402F440325C
:104430000A43390501F480110A43324340F825202C
:104440005B039BB2094A083432F814100B4343F063
:10445000200322F814300748C4E70848C2E7074899
:10446000C0E70448BEE70548BCE700BF30000020B5
:10447000006000400000AD0B000300500400AD0BD5
:10448000014B9860D96070473000002038B5044671
:104490000D46FFF765FC40B104F10800044B33F80A
:1044A00010305B0B2B70034838BD0348FCE700BF9E
:1044B000300000200000AD0B0400AD0B104B93F852
:1044C00078300BB10F48704710B50D4C60220021B9
:1044D00004F1100003F017F90620FDF7FFFA0A4B6C
:1044E0000022C3F87C21D3F87C214FF00042C3F8AE
:1044F0000423012384F878306367044810BD00BFAB
:10450000300000200500AD0B006000400000AD0B46
:10451000034B93F87800003818BF0120704700BFA4
:104520003000002008B501460148FFF7E3FA08BD56
:10453000A000002008B501460148FFF7B3FA08BD06
:10454000A000002038B504460D46FFF709FC08B36B
:10455000204603F0E7FCE8B12046FFF721FC83008A
:1045600003F580739BB203F1804303F5C04300223F
:104570001A601B68224A00F5A27152F8213043F0FC
:10458000010342F821309DB3012303FA00F0C2F881
:1045900004032DE004F108031A4A32F81330C3F380
:1045A0008203042B12D0052B23D004F01F026309D1
:1045B000012B09D04FF0A043D3F81035D34013F0AE
:1045C000010F18D0032002E00F4BF5E7032004F0A1
:1045D0001F026409012C10D04FF0A04102F5E072D7
:1045E00051F8223023F4403343EA004341F82230AB
:1045F00038BD0220EBE70220E9E70349EEE700BF00
:1046000000600040300000200003005010B5044658
:10461000FFF7A6FBA0B1204603F084FC80B1204642
:10462000FFF7BEFB012282400E4BC3F8082300F5C2
:10463000A27053F8202022F0030243F820200EE05D
:1046400004F01F036409012C0AD04FF0A04103F5C8
:10465000E07351F8232022F4403241F8232010BDAA
:104660000149F4E7006000400003005010B5044623
:10467000FFF76CFB08B90C4810BD2046FFF7C6FFDA
:104680002046FFF70DFC04F01F036409012C08D03D
:104690004FF0A04203F5E073022142F823100348D3
:1046A000EAE7034AF6E700BF0400AD0B0000AD0BDC
:1046B0000003005038B501204FF4807300210C46F0
:1046C00003E0400004339BB20131072914D803F101
:1046D000804202F5C0421268002AF2D00C4AD2F899
:1046E00004231042EDD003F1804202F5C0420025C0
:1046F000156012680443E4E7054BD3F87C311BB91D
:104700002046FFF71FFC38BDFFF7D4FCF8E700BFD9
:1047100000600040024B0022C3F80425704700BF30
:1047200000E00140024B0122C3F80425704700BF9E
:1047300000E00140024B0222C3F80425704700BF8D
:1047400000E00140044BD3F8003413F0010FF9D01E
:104750000160BFF35F8F704700E0014010B5044671
:1047600003F0FFFB08B9084810BDFFF7E3FF074B54
:10477000C3F80845054BD3F8003413F0010FF9D006
:10478000FFF7C8FF0248EFE70A00AD0B00E0014069
:104790000000AD0B0268124B9A4215D1C269A3F119
:1047A0001023A3F1EF139A4210D18368012B0FD885
:1047B000C36813B1026993420CD0436963B1826943
:1047C00093420BD0002070470120704701207047B2
:1047D000012070470120704700207047012070477A
:1047E00055AA00FF70B5114B9D68B5B12846FFF77B
:1047F000D1FF064698B9EB6813B10126304670BD6B
:104800002C69002CFAD02046FFF7C4FF48B9E368B2
:10481000AB4208D125462469F3E70126EEE70126DD
:10482000ECE70126EAE70126E8E700BF5C29002063
:10483000002800F0928038B50546484B1B68002BD5
:104840006CD0464A9268002A68D0834204D8434A12
:1048500052681344834203D8414B1B680120984798
:10486000A5F120042046FFF795FF18B13C4B1B68CB
:104870000120984755F8183C012B03D0384B1B6892
:1048800001209847002345F8183C55F8143CCBB15B
:104890009A68002A43D155F81C2C59680A442032E2
:1048A0005A6055F8143C55F8102C1A6155F8145CF0
:1048B0002B6903B1DD6020220021204602F023FF96
:1048C00023462C4625691DB3AA680ABB6B6862683B
:1048D0001344203363602B69236163690BB323B3F3
:1048E000A2699A61A3690BB162695A616B696361DC
:1048F000AA69A261EBB19C61A36903B15C61236900
:1049000003B1DC6020220021284602F0FCFE2B4689
:1049100093B1124B1B6913F0020F15D138BD002360
:10492000D0E7A269002ADAD1E0E7A2690B4BDA608E
:10493000D8E70A4BDC60DFE7084BDB68A36103B113
:104940005C61064BDC60E4E7FFF74CFF0028E5D034
:10495000034B1B6801209847E0E770475C29002063
:10496000B000002070B54F4BDC681D68002D58D09A
:104970009D68002D55D001FB00F6002800F08880CE
:10498000002900F08780B6FBF0F0884240F0848078
:1049900016F1040F00F2828016F0030F43D026F0C8
:1049A0000305043500E0A46914B16368AB42FAD38F
:1049B000002C75D0A3681BB13B4B1B6801209847A6
:1049C0006268521B232A30D905F120016318203A6E
:1049D0005A6000229A60DC6022691A613348605094
:1049E0003349D96102B1D36062695A61A1699961A1
:1049F000002A41D093619A6902B153610122A260F9
:104A00006560236100236361A361264B1B6913F07A
:104A1000010F34D104F1200532460021284602F06E
:104A200072FE284670BD3546BEE70123A360636968
:104A3000ABB1A2699A61A3690BB162695A610023A3
:104A40006361A361174B1B6913F0010F0BD104F1D4
:104A5000200532460021284602F055FEE1E7A26912
:104A6000104BDA60E7E7FFF7BDFE0028EFD00E4BF2
:104A70001B6801209847EAE70A4AD360BBE7FFF7C3
:104A8000B1FE0028C6D0084B1B6801209847C1E73B
:104A90000025C6E70025C4E70025C2E70025C0E7DA
:104AA0002546BEE75C290020B000002055AA00FF83
:104AB000669911EE38B505460C46142200211348BC
:104AC00002F021FE1249134800F038F8232C1CD9BB
:104AD00015F0030304D01C44043CC3F104031D443B
:104AE00022460021284602F00EFE084B1D605C6045
:104AF0009D60203C6C609A68074911609A68A1F13A
:104B00001021A1F1EF11D161DA6038BD5C290020DC
:104B1000314800006549000055AA00FF08B5024B66
:104B20001B68984708BD00BFAC00002008B5024BC9
:104B30001B68984708BD00BFB4000020024B1860F6
:104B4000024B196000207047AC000020B400002028
:104B500031B108B50A46034B1B680021984708BDD0
:104B6000704700BFB8000020F8B504460D464768FE
:104B700000F10806304603F024FE874251D16368F5
:104B8000B3F5807F4FD80021304603F0A1FF002805
:104B90002ADD0021304603F0ECFD28B3CDB104F14D
:104BA0002C060021304603F093FF00281EDD002173
:104BB000304603F0DEFDC8B104F13806002130466E
:104BC00003F086FF002811DD0021304603F0D1FDFF
:104BD00060B1002104F1140003F07AFF002824DD05
:104BE00035B9ADB92846F8BD124DFBE7114DF9E7CF
:104BF000002104F1440003F06BFF002806DD0021D2
:104C000004F1500003F064FF0028EADC094DE9E7F5
:104C1000002104F15C0003F05BFF002807DD0025A4
:104C2000E0E7044DDEE7034DDCE7024DDAE7014D36
:104C3000D8E700BF80BFFFFF70B5044600221146D1
:104C4000FFF792FFE0B9064604F10805284603F095
:104C5000A1FD7F2816D914340021204603F089FDD8
:104C600060B1204603F096FD012807D92946204669
:104C700003F0E0FE002801DA304670BD024EFBE78B
:104C8000014EF9E7004EF7E700BEFFFFF0B587B031
:104C900004460D46164600221146FFF765FF98BBF5
:104CA00003A803F0B1FC6268294603A803F08FFD56
:104CB000054630B103A803F0ADFC15BB284607B08C
:104CC000F0BD04F10805294603A803F0B3FE00284F
:104CD00002DB6FF00305EDE7676804F168030093FA
:104CE0002B4604F1140203A9084604F02BFA0546EA
:104CF0000028DFD13A46314603A803F089FD054676
:104D0000D8E7A5F58545D9E7004DD7E780BFFFFF78
:104D10000023036043600B46B9B9194A8260194AFF
:104D2000C260194A0261194A4261194A8261194AEC
:104D3000C261194A026202F17452A2F52302A2F67C
:104D400092424262836600207047144A8260144A8D
:104D5000C26002F1794202F5740202F50162026159
:104D6000104A4261104A826102F1D14202F5C0123A
:104D700002F51E62C2610D4A02620D4A4262E1E71B
:104D800067E6096A85AE67BB72F36E3C3AF54FA5DC
:104D90007F520E518C68059BABD9831FD89E05C1ED
:104DA00007D57C3639590EF7310BC0FFA78FF96450
:104DB000A44FFABE2DE9F047CAB0002307E09A1CC1
:104DC00050F8224003F142024DF822400133072BF4
:104DD000F5D9002253E011F8225001EB82046378E8
:104DE0001B0443EA0563A57843EA0523E4782343DB
:104DF000941C4DF82430499B469C4FEAF42C8CEAD5
:104E0000B41C8CEA746C6344489D479E85EA060C8A
:104E100004EA0C0C85EA0C0C6344374F57F82270F7
:104E20003B44971C5DF827703B440093DDF808E194
:104E30004FEA7E3C8CEABE0C8CEABE5CDDF80C814D
:104E40000EEA0807DDF810914EEA080A09EA0A0A94
:104E500047EA0A07BC44CDF804C0459F1F44459764
:104E60006344499300934995489647944697CDF8F3
:104E70001491CDF81081CDF80CE1429301323F2A14
:104E800021D80F2AA7D95DF822404FEAF44383EADC
:104E9000744383EA9423541F5DF824402344A2F111
:104EA0000D045DF824504FEAB54484EAF51484EA11
:104EB000D5042344A2F10E045DF824402344941C3D
:104EC0004DF8243097E700230AE003F142025DF831
:104ED0002240991C50F82120224440F8212001331F
:104EE000072BF2D94FF494716846FFF731FE00208A
:104EF0004AB0BDE8F08700BF58B0000008B51022E6
:104F0000034902F0BFFB08B1022008BD0120FCE705
:104F1000FCB1000030B585B005468168103921F03C
:104F2000070402F09FFA01461022684602F0EBFBEC
:104F300010220749684602F0B7FB10236A46214653
:104F4000284602F04CFA08B905B030BD0120FBE755
:104F5000FCB1000030B585B0044602A9012004F080
:104F6000A9FD002869D16946022004F0A3FD0128AB
:104F700003D0002863D100241AE022464921314899
:104F800002F000FA03238DF8003001228DF8012091
:104F90008DF802308DF8033000238DF80430EAE7F5
:104FA0002B79042B29D09DF80A20934225D0013477
:104FB000022C3BD804EB4403234A02EB43059DF843
:104FC000081012F8130004F098FC0028EFD09DF8A8
:104FD0000010687804F091FC0028E8D0AB78042B2E
:104FE00003D09DF80B209342E1D1EB78042BD7D06E
:104FF0009DF803209342DAD1D2E76B79022B07D0D8
:10500000032B11D0042B01D0104A02E0104A00E01B
:10501000104A4921104802F0B5F96879831EDBB2C5
:10502000022B08D9FF2006E00C4AF2E749210C4880
:1050300002F0A8F9012005B030BDFF20FBE7FF20FA
:10504000F9E700BF84B100000CB2000068B10000B5
:105050007CB1000058B10000D0B1000060B1000088
:10506000E4B10000034B00E01833034A9342FBD342
:10507000704700BF10A10000A0A1000070B5064657
:10508000114B53F8204009E0404217E0EB681870DC
:10509000EA68537843F0010353700834731C0A4ADA
:1050A00052F82330A3420DD96568236828469847F3
:1050B000002DF2D00028EBD00028E5DBFF28E5DD4D
:1050C000FF20E3E770BD00BF20B2000038B5054601
:1050D00028B303782BB3144C00E01834134B9C42D4
:1050E00008D0204604F00DFD0028F6D02368AB421E
:1050F000F3D112E00C4C00E018340C4B9C420BD066
:10510000204604F0FEFC0028F6D02168284602F074
:10511000AEFA0028F0D100E00024204638BD044655
:10512000FBE70024F9E700BF10A10000A0A10000E8
:1051300004280CD8DFE800F0030D05070900064835
:10514000704706487047064870470648704706484B
:1051500070470648704700BF88B200005CB200008C
:105160006CB2000078B2000038B2000048B2000013
:1051700030B108B504F0FBFC20B1037823B108BDC1
:10518000024870470148FAE70048F8E798B2000083
:1051900010B504464521034802F0F4F8204604F017
:1051A000BDFC00BFA0B20000F0B583B005460E46BE
:1051B0004FF02003EFF3118783F31288BFF36F8F53
:1051C00000F0FAFF04462846FFF7B2FF034600222C
:1051D00000922A464521114802F0D4F81EB1F36925
:1051E000C3F30803ABB92046FFF7C2FF03462246CC
:1051F00045210B4802F0C6F831462846FFF7C8FFA4
:1052000087F31188BFF36F8F2046FDF707F803B0CF
:10521000F0BD4521034802F0B5F8E4E7B4B2000060
:105220000CB30000E4B2000010B586B00F4C04EBE4
:10523000C01400EB400C0E4B03EBCC000023059395
:10524000012204920F220392029301930090094BD2
:105250004FF4A072084901EBCC11204600F0E2F8AF
:10526000637B23F00403637306B010BD3801002094
:1052700070290020D59B00000052002008B50A4B81
:1052800001221A700220FFF7F9FE01F01BFA032039
:10529000FFF7F4FE00F0F6F8FBF7A0F8034A137BE3
:1052A00023F00103137308BDB1290020B8010020C9
:1052B00008B50146014A0248FCF704FD7D52000092
:1052C000B801002008B50348034A121A002104F06F
:1052D0002EFC08BD18010020B429002010B504469A
:1052E000FFF7A2FF0B4901EBC4110B4A04EB440387
:1052F00002EBC303D9601C7504EB4411074B03EBAD
:10530000811303F5046304EB440402EBC4046360FB
:1053100010BD00BF380100207029002080530020FC
:1053200070B586B000F080FE104D114B9D61114BA1
:1053300005930123049300240394029401940094A0
:105340000D4B4FF420520D49284600F06BF80646ED
:105350006B7B23F004036B73284604F0ECFC2046BF
:10536000FFF7BCFF304606B070BD00BFB80100209B
:10537000702900202CB300007D520000C0290020BD
:1053800000B5A1B01D4B83F308881D4C636943F43D
:1053900000736361E02384F822300025E5772576E9
:1053A0006576A57684F82050636A43F4E02363624F
:1053B00084F82350FCF7EEFEFCF74AFB4FF0FF3376
:1053C000A362E362FCF7F4FFFCF742FF01248DF8CF
:1053D0000D408DF80C4019951A951C95094BC3F892
:1053E00008D0FFF73FFE2846FFF748FE2046FFF7AC
:1053F00045FEFFF795FFFFF75BFF00BFC05B002096
:1054000000ED00E07029002008B553EA020102D146
:1054100004F0AFFB08BD0249183000F081FFF9E746
:105420006F9D0000F0B585B004460E4615461F4638
:1054300000F158038365C3650E9B04220D9904F0A7
:105440009CFB2A463146204604F079FB05460C9B1E
:1054500002930B9B01930A9B00933B460246314605
:105460002046FCF7E9FB00236365054B9B6823B1ED
:105470001B6F2367284605B0F0BD2367FAE700BF1E
:105480007029002030B587B0214C14E0E36A059301
:10549000236A0493E3690393A36902936369019305
:1054A00023690093E368A26861682068FFF7BAFF88
:1054B00023685C653034174B9C42E7D300F020FB37
:1054C000134C00E03034134B9C421CD2606AB0F1A4
:1054D000FF3FF7D0256820EAE070C117C90341EA11
:1054E0005041C00340F2E733C0184FF47A724FF0D6
:1054F000000341F10001FAF703FE02460B4628467D
:10550000FFF782FFDEE700F01DFD07B030BD00BFF2
:10551000DC000020DC0000202DE9F04383B00446CD
:105520001D464FF02003EFF3118783F31288BFF37A
:105530006F8FC16899B900294FD13A4B9B6893F995
:105540000E3023610131E160364B9B68A36087F325
:105550001188BFF36F8F002003B0BDE8F0831646BB
:105560008268304B9B689A42E5D055EA06010CBF31
:105570004FF001084FF0000831D092F90E904946E3
:1055800093F90E0004F032FB81452FDC4FF0000947
:105590000096019522463946234800F01DFC00285C
:1055A000DAD04FF02003EFF3118583F31288BFF3B5
:1055B0006F8F23689C421FD0F3B1216993F90E00CD
:1055C00004F014FB0146204604F01BFBB0B9B9F10E
:1055D000000F15D04FF0010812E02369B1E787F3FF
:1055E0001188BFF36F8F6FF00F00B5E701462046BB
:1055F00004F007FB8146CBE72169E4E74FF001089F
:10560000B8F1000F06D185F31188BFF36F8F6FF0EB
:105610000A00A1E72946044800F056FA6FF00A0094
:105620009AE700BF702900209429002038B58368CC
:105630007BB304461A4A926893422DD1C368012B6A
:1056400003D9013BC360002038BD4FF02003EFF3C6
:10565000118583F31288BFF36F8F016904F0D1FACB
:10566000204604F02FFCA06060B190F90E30236159
:105670000024846704F05FFB29460A4800F024FAFE
:105680002046E1E70020E06085F31188BFF36F8FCB
:10569000DAE76FF01500D7E74FF0FF30D4E700BF2F
:1056A000702900209429002038B504464FF02003CB
:1056B000EFF3118583F31288BFF36F8F04F002FCC0
:1056C00040B10022826704F036FB2946064800F00C
:1056D000FBF938BDA368E268934203D0012213446A
:1056E000A360F2E70022FAE79429002010B582B007
:1056F0004FF02004EFF3118184F31288BFF36F8F12
:10570000846844B1013C846081F31188BFF36F8FDA
:10571000002002B010BD53EA020406D000920193AB
:105720000246054800F058FBF3E781F31188BFF308
:105730006F8F6FF00F00ECE794290020F8B50D464D
:10574000C36813F0020F5CD1044613F0040F5DD15F
:105750000B68002B38D0E36813F0010F37D0A36833
:105760002B6002272E68002E3FD0294B9B68B34246
:105770002FD000231A46D6F89830C3F38001C3F324
:10578000C00013F0010F33D001B1A2B300B1A9B32F
:1057900000232360D6F8843013B31C60C6F884401D
:1057A0002EB10022114606F1880004F0BAFB012058
:1057B000002806DBE36843F00403E3602B68A36082
:1057C0003846002821DC1EE083680B60C3E7012710
:1057D000C8E704F0C3F908B90123CBE70023C9E700
:1057E000C6F88440C6F88040DAE76FF01500DFE7BE
:1057F0006FF01200DCE76FF00F00D9E76FF00F00D9
:10580000D6E76FF00F0000232B60F8BD0020FAE709
:105810007029002070B50546C36823F00203C360F9
:105820001A4B1B68FBB11C4603B11C6800261FE025
:105830001A4666B119683160144949688B420FD025
:105840000021116003F10800FFF72EFF15E0186832
:105850000E49086049688B42F2D10C494860EFE775
:105860000A494E60ECE71C46E0E722462346144610
:1058700053B15A68AA42DBD01E46002CF5D022460E
:10588000002CF3D02268F1E770BD00BF94290020FE
:10589000F0B585B0054616E0D5F8983023F004023F
:1058A000C5F8982013F0040F59D1002302934FF04C
:1058B000FF324FF0FF33CDE9002305F18802314676
:1058C0002E4800F0B7FC4FF02003EFF3118683F36E
:1058D0001288BFF36F8FD5F88040002CDCD023688E
:1058E000C5F88030D5F88420944235D0D5F898306A
:1058F00043F00203C5F89830E36843F00103E36026
:1059000023F00403E3606368002CCED086F3118893
:10591000BFF36F8F204698474FF02003EFF31186B7
:1059200083F31288BFF36F8FE36823F00103E36012
:1059300013F0020F1ED1D5F8983023F00203C5F8FA
:105940009830C3F3002386F31188BFF36F8F002BC9
:10595000B9D100F075FBB6E7C5F88430C6E705F1AC
:10596000900700220121384604F0DBFA0028F8D124
:105970000023C9E72046FFF74DFFDCE7942900200C
:1059800008B50146014804F072F908BD4002002044
:10599000F0B589B004460E9D0020C4F88000C4F81C
:1059A000840004F18800C4F88800C4F88C0004F175
:1059B0009000C4F89000C4F89400FDB12879F8B9BB
:1059C0000120C4F898004FF0FF364FF0FF37CDE9C3
:1059D00006670020049003930290019000940A4B04
:1059E000204604F0D5F825B1296811B1204604F00D
:1059F000BBF8204604F0BDF809B0F0BD0120E0E797
:105A000040F20110DDE700BF91580000B3F1FF3F05
:105A100008BFB2F1FF3F00D1704708B50249183006
:105A200000F07EFC08BD00BF6F9D000010B5074B65
:105A30001C6804B910BDFDF73BFF0444044B1C6116
:105A40000021024B186804F0D8FAF3E7A4290020DB
:105A50007029002070B504460D4600234FF0200247
:105A6000EFF3118682F31288BFF36F8F0EE00228E6
:105A7000B8BF02201860114B1D60114B9868FFF7EA
:105A8000D5FF86F31188BFF36F8F0123A3B90C4BA9
:105A900000221A61610CE30340F2E73018184FF45A
:105AA0007A724FF0000341F10001FAF729FB054B30
:105AB0001860002CDBDCDEE770BD00BFA0290020F1
:105AC00070290020A429002008B5084621B9EFF369
:105AD000058313B9012100E0002111F0010F07D067
