:1000000058540020792000003B5D000031200000A2
:1000100031200000312000003120000000000000ED
:10002000000000000000000000000000751B000040
:1000300031200000000000003120000031200000CD
:10004000C91B0000C91B0000C91B0000C91B000020
:10005000C91B0000C91B0000C91B0000C91B000010
:10006000C91B0000C91B0000C91B0000C91B000000
:10007000C91B0000C91B0000C91B0000C91B0000F0
:10008000C91B0000C91B0000C91B0000C91B0000E0
:10009000C91B0000C91B0000C91B0000C91B0000D0
:1000A000C91B0000C91B0000C91B0000C91B0000C0
:1000B000C91B0000C91B0000C91B0000C91B0000B0
:1000C000C91B0000C91B0000C91B0000C91B0000A0
:1000D000C91B0000C91B0000C91B0000C91B000090
:1000E000C91B0000C91B0000C91B0000C91B000080
:1000F000C91B0000C91B0000C91B0000C91B000070
:1001000053B94AB9002908BF00281CBF4FF0FF317E
:100110004FF0FF3000F00CB8ADF1080C6DE904CEE3
:1001200000F008F8DDF804E0DDE9022304B07047D0
:10013000704700BF2DE9F04F07468C460846099EE0
:1001400015463C461946002B40F0C6808242B2FA62
:1001500082F746D94FB1C7F1200E24FA0EFE00FAFD
:1001600007F3BD404EEA030CBC404FEA15481FFAA6
:1001700085FEBCFBF8F9220C08FB19C309FB0EFA3B
:1001800042EA03439A4528D9EB1809F1FF3004D21B
:100190009A4502D9A9F102002B44A3EB0A03A4B2A9
:1001A000B3FBF8F208FB123302FB0EFE44EA0344F1
:1001B000A64514D92C1902F1FF3303D2A64501D963
:1001C000931E2C44A4EB0E0443EA00401EB1FC40F5
:1001D000002334607360BDE8F08F4846DDE71346C6
:1001E000F0E702B9FFDE87BB831A01214FEA154E03
:1001F000AAB2B3FBFEFC200C0EFB1C330CFB02F876
:1002000040EA0343984563D9EB180CF1FF3004D260
:10021000984502D9ACF102002B44A3EB0803A4B229
:10022000B3FBFEFC0EFB1C330CFB02F244EA03445E
:10023000A2424FD92C190CF1FF3304D2A24202D9A9
:10024000ACF102032C44A41ABEE7C7F1200C20FA3B
:100250000CF800FA07F324FA0CFCBD404CEA030248
:100260004FEA154EABB2B8FBFEFC110C0EFB1C8026
:100270000CFB03F941EA0040814504FA07F423D955
:1002800028180CF1FF3104D2814502D9ACF10201EA
:100290002844A0EB090092B2B0FBFEFC0EFB1C0050
:1002A0000CFB03F842EA004398450FD9EB180CF118
:1002B000FF3204D2984502D9ACF102022B44A3EBE1
:1002C000080342EA014191E76146E2E76246F6E748
:1002D0006046A2E76346B6E7834205D90EB1C6E998
:1002E00000700021084676E7B3FA83F181B98342B2
:1002F00001D3BA420AD8BC1A60EB030301209C4622
:10030000002E68D0C6E9004C002164E70846F7E7F4
:10031000C1F1200C8B4022FA0CF41C4302FA01F5C7
:1003200000FA01F327FA0CF220FA0CFB4FEA144909
:100330001343BBFBF9F81FFA84FE09FB18BB1A0C28
:1003400008FB0EFA42EA0B42924507FA01F73ED942
:10035000A21808F1FF3004D2924502D9A8F1020098
:100360002244A2EB0A029BB2B2FBF9F809FB182265
:1003700008FB0EFE43EA024296452AD9A21808F16C
:10038000FF3304D2964502D9A8F10203224443EA7E
:100390000040A0FB0593A2EB0E029A42CE4698467F
:1003A00002D306D14F4504D2B9EB050E63EB040826
:1003B000013886B1B7EB0E0362EB080707FA0CFCB5
:1003C000CB404CEA0303CF40C6E900379CE74046E8
:1003D000C7E74346DBE73146FDE6000000B587B0DE
:1003E0001E4B019300238DF8083007E003F5C07120
:1003F0001A4A1B4842F821000133DBB2072BF5D91A
:100400004921184805F092FB00F05AF8164800F010
:1004100039F858B103A800F089FC144B1B688342DB
:100420000AD04521124805F081FBFEE70E4A45211E
:10043000104805F07BFBFEE7059A49210E4805F0C0
:1004400075FB49210D4805F071FB03A804F067FD19
:1004500045210B4805F06AFBFEE700BF00000140A4
:100460003546526EF886000014870000741900208B
:1004700048870000288700006C8700009C870000E8
:10048000C487000008B5054B1B6813B1034B1868FF
:1004900008BD04F095FB014B1860F7E770010020E0
:1004A00010B900200860704708B5024600234521B6
:1004B000024805F03BFB6FF0150008BDE88700001F
:1004C00008B54FF4C051024804F002F808BD00BF5F
:1004D0007401002070B5A4B020292AD806460D4624
:1004E000002400E00134144B1B68A3421CDD09A862
:1004F00007F0D8FC002109A804F018F90F4B03EB12
:10050000C4025268126853F8341009A807F0D0FCEE
:1005100001A909A807F00FFD2A46314601A805F0F8
:100520008BFC0028DED101E04FF0FF34204624B0E0
:1005300070BD4FF0FF34F9E7108800001488000008
:100540002DE9F041D6B015461F465A4CD4F800802C
:100550005F9C04945E9C039406AC02945D9C0194A1
:100560005C9C009404F003FD0446002840F0858064
:10057000609B23B1202206A9184605F06FFC0023DA
:1005800000934FF6FF733A4629464EA804F02EFD1D
:100590000446002871D145464FF0FF361CE04FF06D
:1005A000FF3619E04FF0FF3616E0BDF85231202B30
:1005B00077D10EAA5599384605F0C7FA04460028A7
:1005C00061D120220EA906A804F07FFE05463A4B11
:1005D0001B68834259D1012454AB0DF5A97255A96A
:1005E0004EA804F068FD002845DB37DCBDF850114B
:1005F0001029DAD0012920D02029EDD1002ECEDB20
:100600002E4B1B68B342CDDDBDF85231B3F5807F70
:100610004DD10EAA5599384605F097FA002839D1E0
:10062000F6B20096BDF852310EAA202106A800F0BD
:10063000B9F880464FF0FF36CEE7BDF85231202B97
:1006400032D80EAA5599384605F07FFAF8B99DF8C8
:1006500052110EA8FFF73EFF0646BDE7002C0CBF67
:100660000124002419D0144B1B68434517D0114BAB
:10067000D3F8008001E0A846044604B94446204669
:1006800056B0BDE8F081A846F7E78046F5E7A846F2
:100690000446F2E7A8460446EFE7A846EDE7984689
:1006A000EBE74FF0FF34EAE74FF0FF34E7E74FF0B6
:1006B000FF34E4E7000000207419002010880000D7
:1006C00030B5ADF51D7D0D4619464368B3F5807F05
:1006D00051D1202A52D141AA03F0E6FF0446002856
:1006E0004FD19DF80332BC2B4ED10DF2E31109A876
:1006F00004F08FFD234608E041AAD25C09A810F857
:1007000003C082EA0C02C2540133DE2BF4DD9DF8F3
:10071000243003F07F038DF82430BD2C05DC09ABB9
:100720001B5D002B33D10134F7E79DF8E230012B3C
:1007300032D181A807F0B6FB002181A803F0F6FFB3
:100740000822174981A807F0B3FB2022294681A877
:1007500007F0AEFB20220DF1E30181A807F0A8FB12
:1007600001A981A807F0E7FB20220DF2E31101A8FF
:1007700004F0ABFD0DE04FF0FF300AE04FF0FF302A
:1007800007E04FF0FF3004E04FF0FF3001E04FF0A2
:10079000FF300DF51D7D30BD4FF0FF30F9E700BF94
:1007A0001C8800002DE9F047ACB006460F46904685
:1007B0001D469DF8D0A0144BD3F8009001A807F077
:1007C0002DFB124C54F83A30009304EBCA046268D3
:1007D00012681A44694601A804F0C9FC10B9029BCA
:1007E000AB4209D001A807F025FB01A807F022FBC6
:1007F00048462CB0BDE8F08743463A46314601A84A
:10080000FFF75EFF8146F0E700000020148800003B
:1008100008B51022034905F00FFB08B1022008BDFE
:100820000120FCE71095000002680B4B9A420ED1A4
:10083000C2680389D843824203D802EB030C01202B
:1008400000E0002010B18B68634502D9704700209A
:1008500070470020FAE700BF3DB8F39600B587B0B7
:10086000134600200490039002904FF4807201928E
:10087000044A00920A460146FFF762FE07B05DF89F
:1008800004FB00BFD82500202DE9F04182B00546C9
:100890000C46174623480668002004F05CFB01A9BB
:1008A000C0B201F0A5F818B1304602B0BDE8F08141
:1008B0002C2000FB04582146284604F0CEFD20B130
:1008C000D8F8103013F0100F0AD024B9012601987F
:1008D00005F03AF9E8E70199284604F0B5FEF5E796
:1008E0003B46019A41462846FFF7B8FF0646019D60
:1008F00029464046FFF798FF18B10B4B1B68B342DF
:10090000E5D03CB964B9094A4521094805F00EF91A
:100910000126DCE7AA680021284605F052F9F1E734
:10092000044AF1E70000002074190020308800001C
:10093000388800002488000070B505460E46002067
:1009400004F016F80446022805D0042803D0032832
:1009500001D0204670BD324601212846FFF794FFA2
:10096000044B1B688342F4D0012801D00524F0E732
:100970000446EEE77419002030B583B005460C46F6
:10098000002300930193084604F0F6FD30B32A6873
:10099000194B9A4216D0EA6A174B9A4218D0019B1B
:1009A000009A934200D90093009BA360009A2146CD
:1009B000284600F02DFC114B1A68002A16DC002096
:1009C00003B030BD6A460021284604F0EFFCE2E7A0
:1009D00001AA0121284604F0E9FCE0E704F108013E
:1009E000002004F096FCA3680093DFE75721044839
:1009F00005F09CF8E3E700BF3DB8F396D826002049
:100A00006088000038B504460D46FFF7B5FFEB7966
:100A100084F85830033BDBB2012B0BD9EB79022B66
:100A200011D0042B0FD0032B0DD094F85830FF2B8E
:100A300012D038BD002004F0B3FE0028EED0FF2312
:100A400084F85830EAE7002004F097FE0028ECD044
:100A5000FF2384F85830E8E74521024805F066F89E
:100A6000FEE700BF9088000070B504460D4604F014
:100A70003CFD50B1064680225721384805F056F813
:100A8000012384F858309E420CD0002211462046A3
:100A900004F041FD38B9204600F0C4FA60B90123E2
:100AA00084F8583070BD002257212D4805F03EF8DB
:100AB000012384F85830F5E7284604F053FD294611
:100AC000204604F01BFEF0B9284604F055FD80F0E6
:100AD00001012A46C9B2204604F01DFDE0B92846AE
:100AE00004F04AFD08B3EB79012B2BD02A460121F3
:100AF0002046FFF7C9FE1B4B1B68984229D00523EF
:100B000084F85830CEE700225721174805F00EF838
:100B1000012384F85830C5E700225721104805F01A
:100B200005F8012384F85830BCE729462046FFF732
:100B300069FF2A460021204604F0EDFC012384F8D9
:100B40005830AFE729462046FFF7F6FE84F85800F4
:100B5000A8E7EB7984F85830A4E700BF9C88000030
:100B6000E0880000741900200C8900002DE9F04F86
:100B700083B00F4690461E46DDF830900D9D002450
:100B80000CE00CF5C072194B194943F822100CF116
:100B9000010C5FFA8CFCBCF1070FF2D9AC421DD2FC
:100BA000A5EB040ABAF5806F01D94FF4806A534669
:100BB000104AA119384604F0C8FF98B953460D4AA7
:100BC00004EB0901404604F0DEFF68B95444074BCA
:100BD00000934FF0000C8DF804C0DCE7002003B058
:100BE000BDE8F08F0120FAE70120F8E7000001409E
:100BF0003546526ED81900202DE9F04184B00446E4
:100C000088463D4B1F683D4B43623D4B03654FF0AB
:100C1000FF3600250DE02946002004F09CF92C2326
:100C200005FB03F32033E118C0B200F0E1FE0646F5
:100C30000135012DEFD969462046FFF715FF94F8DD
:100C400058308DF80730042B2ED8022B38D2012BC8
:100C50003CD194F85830FF2B3CD0012B06D06A468B
:100C60000021204604F057FC0646A0B90022114698
:100C70002046FFF709FE0746224B1B6898420AD11F
:100C8000204604F07CFB064628B90021204604F0EB
:100C900074FB064618B3204604F078FB06B93E46BE
:100CA000304604B0BDE8F081052B0FD1002004F0E0
:100CB00077FD06460028CCD0FF2384F85830C8E7DB
:100CC0006946204604F069FC0646C2E7FF2384F823
:100CD0005830BEE745210C4804F028FFFEE71022FB
:100CE0000021684605F0E9F84146204604F02EFC54
:100CF000044B1F68CFE700BF00000020D81D002074
:100D0000D8210020741900209088000008B520B177
:100D10006022002105F0D1F808BD602200210248C0
:100D200005F0CBF8F8E700BF7819002010B50446AD
:100D30000020FFF7EBFF21460148FFF75DFF10BDE4
:100D4000781900202DE9F04383B00F4615461C4664
:100D5000DDF82880536A53F830601A68B61A0138F3
:100D600053F83030A3EB02092368012B1BD03A461D
:100D70003146404604F064FC019700964B464246DB
:100D800041462846FFF7F2FE2146284604F026FC9D
:100D900023680133236018B10C4A136801331360D0
:100DA00003B0BDE8F083E368022B04D10B99284619
:100DB00004F04AFCDBE74146284604F045FC2246A5
:100DC0004146284604F078FCF0E700BFD826002012
:100DD0002DE9F04383B00F4615461C46566A56F877
:100DE00030203368A2EB0308013856F83060F61A59
:100DF0002A6D52F830101368A1EB03092279012AF9
:100E000005D02279022A1CD003B0BDE8F0833A460F
:100E100031460A9804F014FC019700964B460A9A52
:100E20000B992846FFF7A2FE2146284604F0D6FB80
:100E3000022323710028E4D0114A136801331360A0
:100E4000DFE73A4649460B9804F0FAFB0197CDF8E4
:100E5000009043460B9A0A992846FFF787FE2146E1
:100E6000284604F0BBFB2368013323600123237170
:100E70000028C9D0024A136801331360C4E700BFD9
:100E8000D826002070B582B015461E46002B36D0FD
:100E9000436A5C687379012B11D0022B17D00024B0
:100EA000002004F058F801A9C0B200F0A1FD68B319
:100EB0000124019804F048FE204602B070BD01BB39
:100EC00032681C4B1B689A42EAD80024E8E7336872
:100ED000012B07D9174A1268934203D899B9002405
:100EE0000121DDE7012B01D00024D9E701B1002465
:100EF0000129D5D13379022BD2D10021D0E70024AA
:100F0000CEE70024CCE700242146C9E720232A4667
:100F10002146019804F019FE044640B9002EC8D0BD
:100F20002A68054B9A42C4D04FF0FF34C1E7012430
:100F3000BFE700BF040000203DB8F3962DE9F04F55
:100F400085B007460C4601920146002004F0CAF91C
:100F5000051E5DDBE36D0093384604F0D1F9814650
:100F60004FF0000B4FF001084FF0FF3A04E0BAF1E8
:100F7000FF3F1DD02546B046002D1BDD6C1E9DF8A1
:100F8000001001230DF10F0204FB0191384604F01B
:100F9000DCFD061E3EDB01220DF10F01384607F095
:100FA00084F80028E3D04645E4D00BF1010BE1E7DB
:100FB000AA46DFE7BBF1010F0EDCBAF1FF3F2DD0EF
:100FC000BAF17F0F0DDC012301994B710AEB03028B
:100FD0000A600B7100201EE04521114804F0A6FDB7
:100FE000EBE70223019A5371AAF1800A0AEBDA7344
:100FF0005B1001331360BAF1000F0AF0010AB8BFA9
:10100000CAF1000A0AF1010A82F804A0002002E0F5
:10101000072000E0012005B0BDE8F08F0020FAE7CE
:101020003889000038B5856A446DA54202D0631C3A
:10103000AB4211D1802D15D8002319469C421DD9F1
:10104000426A02EBC3025168026D02EBC3025268AE
:1010500091420DD10133F1E75721114804F066FDAB
:1010600000200AE057210F4804F060FD002004E052
:1010700057210D4804F05AFD002038BDA5420DD976
:10108000426A02EBC3035B688B4201D10120F4E7A3
:101090005721054804F04AFD0020EEE70120ECE767
:1010A0005C89000094890000C489000000B589B003
:1010B00006A9012007F0C7F89DF81830012B3BD096
:1010C000032B37D0244B9DF819209DF81A109DF85A
:1010D0001B00029001910092204A4921204804F00F
:1010E00025FD04A9022007F0AEF89DF81030012B71
:1010F00026D0032B22D0184B9DF811209DF81210FA
:101100009DF81300029001910092164A492114485B
:1011100004F00CFD9DF81830012B03D19DF81A3016
:10112000032B0FD04921104804F000FD002009B026
:101130005DF804FB0D4BC6E70D4BC4E70B4BDBE73B
:101140000B4BD9E79DF81030012BEBD04921094812
:1011500004F0ECFC0220EAE7F0890000048A0000B9
:10116000148A0000588A0000888A0000FC89000068
:10117000F4890000688A000070B586B00C464B68A0
:1011800003F0FF231C498B4204D106461546236811
:10119000012B01D006B070BD04A9104607F003F87A
:1011A0009DF81030012B25D0032B21D0134B9DF837
:1011B00011209DF812109DF81300029001910092E9
:1011C0000F4A49210F4804F0B1FC9DF81030032B61
:1011D000E0D12946304604F037FA284606F0D2FF1F
:1011E000A168284604F0B9F8284603F0A1FBD1E72E
:1011F000054BDCE7054BDAE700010004F08900004D
:10120000588A0000148A0000FC890000F48900005C
:101210002DE9F04184B007460D46904649213E48ED
:1012200004F084FC00243D4B1C607B6A5E683444FF
:101230003A4A136801331360A045F8D8284604F0F1
:101240009BF970B1F86D04F048F8BC6A013C0023CA
:101250003344834201D2013CFAE7304B1B68A3427E
:1012600013D203A9012000F0C3FB02A9022000F061
:10127000BFFB029A29463846FFF77EFF6B79012BA8
:1012800014D002236B7101242BE05721244804F071
:101290004DFC224B1A6804FB06F302FB0662572141
:1012A000204804F043FC0123EB7132E01B4B1C6827
:1012B00000E0013C8CB12A68184B1B689B1A013373
:1012C0009C42F6D8029B0193039B00932B463A461F
:1012D00031462046FFF736FDEBE701232B60D0E7D0
:1012E00001340E4B1B689C420DD82B689C42F7D3EF
:1012F000029B0193039B00932B463A4631462046BE
:10130000FFF766FDECE7039804F01EFC029804F07A
:101310001BFC04B0BDE8F081A08A0000040000209E
:10132000CC8A0000FC8A000008B50B6801330B6012
:10133000014B1B68984708BD08000020014B18604E
:10134000704700BF0800002000B583B002460B467E
:101350000021019101A9034800F0B2F803B05DF843
:1013600004FB00BF291300002DE9F04383B00446BD
:1013700008461546238B13F0080F05D103F0070626
:1013800000230093019369E0012909D043F0200371
:10139000238385F31188BFF36F8F03B0BDE8F0831B
:1013A00043F010032383F4E7204604F090FA57E05B
:1013B000D4F814904A466946204604F0A1FA002762
:1013C0005AE023691F680621204604F059FA4FF0BD
:1013D000000951E023695F680421204604F050FAB7
:1013E0004FF0000948E023699F680521204604F07A
:1013F00047FA4FF000093FE0002246E0002244E0B7
:1014000043F00803238385F31188BFF36F8F00290E
:1014100044D1009B2BB14B4642466946204604F01E
:10142000E6FA17B125492046B8474FF02003EFF3FD
:10143000118583F31288BFF36F8F238B23F008038A
:101440002383238B13F0100F2ED023F0100323835C
:101450000120268B06F0070600289AD00228A3D088
:10146000002896D00128A3D00328AAD00428B1D000
:101470000528B8D00027B946238B03F00708B045EC
:10148000BAD0A268002AB9D001221146002AB7D1E9
:10149000009A002AB4D1002FB2D1D2E74A46414681
:1014A000204604F0F5F9B4E713F0200F04D023F040
:1014B000200323830220CCE70020CAE71D5A000046
:1014C0002DE9F04F8FB005468A46079302F1FF3BA6
:1014D000002475E220460FB0BDE8F08F0BF1020B3F
:1014E0000020014603904FF0FF33019302939BF8D5
:1014F00000301A467A2B00F21282DFE813F07B00EC
:10150000100210021002100210021002100210024B
:10151000100210021002100210021002100210023B
:10152000100210021002100210021002100210022B
:1015300010021002100210021002100210027302B8
:1015400010021002730210027D001002100210023D
:101550001002AF00730210027002820010028900B4
:1015600093009300930093009300930093009300E3
:10157000930010021002100210021002100210025A
:1015800010021002100210021002100210021002CB
:1015900010021002100210021002100210021002BB
:1015A00010021002100210021002100210028E012E
:1015B000100210021002100210021002100210029B
:1015C000100210020202DB00100210021002C4001E
:1015D000DB0010021002C4001002100210028E0183
:1015E00010021002F0011002DB00100210028E0146
:1015F0001002C40020466EE751462520A84701345A
:10160000DEE1039B03F0FE0303930023019313E049
:10161000029B002B06DA019B002B03DA039B002BB5
:1016200000F0E281019B002B09DB03EB830302EB5B
:101630004302A2F1300301930BF1010B57E7029B28
:10164000002B08DB029B03EB830302EB4302A2F1B6
:1016500030030293F0E700230293F3E7019B002B92
:1016600005DB079B1A1D07921B680193E4E7079BA4
:101670001A1D07921B680293002BDDDA5B4202936E
:1016800002230393D8E7682B0BD06C2B0ED059B1F3
:1016900051462520A84751469BF80000A847023430
:1016A0008EE16829F1D148231946C5E76C29EED1AE
:1016B0004C23F9E77A290ED06C296BD04C297AD0CB
:1016C000752B00F09080079B1A1D07921B681F4620
:1016D0004FEAE37808E0752B55D0079B1A1D079257
:1016E0001B681F464FEAE3789BF80030752B02D049
:1016F000B8F1000F7EDB202800F085802B2800F059
:101700008780A54E4FF00009CDF814B006940A2248
:10171000002338464146FEF7F3FCCDF8109009F15E
:10172000FF3930320DF1350303F80920BB4644463A
:101730000A22002338464146FEF7E2FC0746884667
:10174000BBF10A0F74F10003E1D2DDF814B0069C7E
:10175000049BC3F10108143308AAD3180493019B16
:10176000002BC0F2EF80029BA3EB0807019AA2EBCB
:101770000809B9F1000F00DD9F1A039B13F0020F57
:1017800040F0F380EAE0079B1A1D07921F684FF0B4
:101790000008A9E7752B07D0079B1A1D07921B6845
:1017A0001F464FEAE3789FE7079B1A1D07921F68C1
:1017B0004FF0000898E7752B0AD0079B073323F0FA
:1017C000070303F1080207921F685B6898468BE7DE
:1017D000079B073323F0070303F1080207921F68F2
:1017E000D3F8048080E7079B1A1D07921F684FF00B
:1017F000000879E77E42374668EB4808029B013BC8
:101800000293664E7EE7029B013B0293644E79E7AA
:10181000029B013B0293634E74E7702B0ED1079B32
:101820001A1D07921B681A46002123BB4FF00508BA
:10183000002301935C4B0493574E90E76C290AD028
:101840004C290ED0079B1A1D07921A6800212328E5
:1018500011D0514E18E0079B1A1D07921A680021FB
:10186000F5E7079B073323F0070303F1080207920C
:101870001A685968EBE79BF8003013F0200F0BD083
:101880004A4E029B023B02939BF8007007F06007F0
:10189000393F4FF0000E14E0454EF2E70EF1FF30F5
:1018A00030330DF1350C0CF80030130943EA0173A5
:1018B0004FEA111C102A71F1000208D386461A461D
:1018C000614602F00F03092BE8D93B44E6E7CEF16D
:1018D00001080EF1140308AAD31804933FE7079BED
:1018E0001A1D07921B680493184604F091FA80466B
:1018F000019B002B1CDB83421EDB00230193264E41
:101900002DE7079B1A1D07921B688DF820304FF0BA
:1019100001080023019308AB04931F4E1FE75146B3
:101920002520A84751469BF80000A847023447E00D
:1019300000230193184E12E7DDF804800023019381
:10194000154E0CE7039B13F0010F3FF40CAF029B05
:10195000019308E751462020A8470134013FF9D5FB
:1019600003E001365146A847013430780028F8D109
:1019700003E051463020A8470134B9F10109F8D5F8
:10198000049E04E0514616F8010BA8470134B8F153
:101990000108F7D512E000BFA8900000448C0000B9
:1019A000488C00004C8C0000588C0000548C0000C7
:1019B000508C000051462020A8470134013FF9D542
:1019C0000BF101069BF8010025283FF487AD0028A4
:1019D0003FF480AD5146A8470134B346F0E70223F7
:1019E000039329E6184627E60123039324E600BF64
:1019F0000F4B1B68B3B130B4002300E001330D4A34
:101A00001268934208DA1A01094C246804EB0315A2
:101A1000A25C9042F2D100E0002535B10D600020BB
:101A200030BC70476FF00C0070476FF00100F7E7B3
:101A30000C000020B08C000000B58BB003AB00930D
:101A4000024B04F027F90BB05DF804FB595C000071
:101A5000014910220A60704710ED00E072B649405B
:101A600081F3118820BF80F3118862B6704700BFF0
:101A700010B582B00446836800934368026845212C
:101A80000B4804F053F8636900932369E268452129
:101A9000084804F04BF8E2694521074804F046F88D
:101AA000A2694521054804F041F802B010BD00BF0D
:101AB000B48C0000E88C00001C8D0000308D00000C
:101AC00040B2002807DB00F01F02400901239340C9
:101AD000014A42F82030704700E100E04209054B1E
:101AE00053F8222000F01F00012303FA00F01040F9
:101AF000704700BF00E100E0013140B2002808DB80
:101B00004901C9B200F1604000F5614080F800135E
:101B1000704700F00F004901C9B2014B19547047DA
:101B200014ED00E030BFFFF7FDBF00BF08B50F4B5D
:101B30000F4A22F07F029A60BFF34F8FBFF36F8F7F
:101B4000D3F8882022F47002C3F88820EFF31483BE
:101B500023F0040383F31488BFF36F8F03F0F0F8CE
:101B600003F034F900F06EFA03F0F6F800ED00E04F
:101B7000000000001EF0040F0CBFEFF30880EFF32D
:101B80000980816911F8021C0229FFD001B504F017
:101B9000C8F801BD00B58446084611461A46094BEF
:101BA0004FF0200E83F3098863B64FF0000383F3F0
:101BB0001188BFF36F8FE0478EF31188BFF36F8FEB
:101BC000FEE700BF5854002001B5EFF30580A0F1F7
:101BD00010004FEAC0000449014409C99847BDE814
:101BE000014002490847000008850000F11B000081
:101BF000704700BF70B505460E4614464521314872
:101C000003F094FF304B9B6A13F0100F30D12E4B32
:101C10009B6A13F0080F30D12B4B9B6A13F0020F15
:101C200030D1294B9B6A13F0010F41D1264B9B6A9F
:101C300013F0200F41D1244B9B6A13F0100F01D1F8
:101C4000214B9B6A204B9B6A13F0200F04D01E4A45
:101C5000536A23F4005353621B4A936A43F0FF0311
:101C600093620121284604F06EF82070002070BDB8
:101C70004521164803F05AFFC9E74521144803F0EF
:101C800055FFC9E74521134803F050FF0E4B5A6B2F
:101C90009B6A13F0800FC4D045210F4803F046FF24
:101CA000002EBED0084A936A23F080039362B8E7FF
:101CB00045210A4803F03AFFB8E74521084803F0F8
:101CC00035FFB8E7648D000000ED00E0808D000076
:101CD000B88D0000D08D0000F08D00000C8E00004B
:101CE000308E000070B505460E46144645212E483C
:101CF00003F01CFF2D4B9B6A13F4805F24D12B4B08
:101D00009B6A13F4006F24D1284B9B6A13F4007F65
:101D100024D1264B9B6A13F4806F35D1234B9B6AE9
:101D200013F4807F35D1214B9B6A13F4005F35D1CA
:101D30001E4A936A43F47F4393620121284604F0CC
:101D400002F82070002070BD4521194803F0EEFE16
:101D5000D5E74521174803F0E9FED5E745211648A8
:101D600003F0E4FE114B9A6B9B6A13F4004FD0D042
:101D70004521124803F0DAFE002ECAD00B4A936ABE
:101D800023F400439362C4E745210D4803F0CEFEDF
:101D9000C4E745210B4803F0C9FEC9E745210A48BD
:101DA00003F0C4FEC4E700BF648E000000ED00E055
:101DB000808E0000B88D0000988E0000B88E000064
:101DC000D48E0000F48E0000308E000008B545214E
:101DD000234803F0ABFE234B9B6A13F0007F21D115
:101DE000204B9B6A13F0807F21D11E4B9B6A13F41A
:101DF000002F21D11B4B9B6A13F4802F21D1194B4B
:101E00009B6A13F4003F21D1164B9B6A13F4803F69
:101E100021D1144A936A6FEA03436FEA1343936232
:101E2000002008BD4521104803F080FED8E7452179
:101E30000E4803F07BFED8E745210D4803F076FEFF
:101E4000D8E745210B4803F071FED8E745210A4841
:101E500003F06CFED8E74521084803F067FED8E799
:101E6000148F000000ED00E0348F00004C8F000064
:101E70006C8F0000908F0000BC8F0000DC8F000092
:101E800070B506460D464521274803F04FFE002356
:101E90002B70264BDC6A14F0020409D1234BDB6A59
:101EA000002B0BDB214BD86A10F080400CD170BDA9
:101EB00045211F4803F03AFE0020F8E745211D4860
:101EC00003F034FE2046F2E745211B4803F02EFEC6
:101ED000B36933F8022C4DF602739A420DD0134BBE
:101EE00093F8283083B9114B93F8293093B90F4BED
:101EF0005B8D9BB2A3B92046D9E7326845210F48D4
:101F000003F014FE3068D2E72A4601213046FFF77D
:101F100071FECCE72A4601213046FFF7E3FEC6E713
:101F20003046FFF753FFC2E70C90000000ED00E0E1
:101F300028900000509000006490000088900000FD
:101F400008B500230B704521014803F0EFFD08BDE3
:101F5000AC90000008B50F2907DC054AA1F1100379
:101F60004521044803F0E2FD08BD034AF6E700BF3F
:101F7000F49000000C910000D890000070B58AB079
:101F8000254B5D68C5F30805002383F31188BFF373
:101F90006F8F02F07F43B3F17F4F1ED102F00C032D
:101FA000082B10D012F0080F14D00C4600260DF1AB
:101FB00027022946204603F0C8FE05469DF8273033
:101FC00073B10AB070BD4521144803F0AFFD00267F
:101FD0003446ECE704460126E9E700263446E6E706
:101FE0002022214601A803F039FF4EB1089BC3F31C
:101FF00008025AB96FEA53236FEA4323089305E0B6
:10200000089B23F4FF7323F00103089301A92846DA
:1020100003F07BFED5E700BF00ED00E02491000057
:10202000024A536943F010035361704700ED00E02A
:10203000EFF30880EFF3098101B57246FFF79EFFC9
:1020400001BD00BF002206E002F00F01094B0B4466
:102050002021197601322F2A0ADC53B2002BF3DB40
:1020600003F1604303F56143202183F80013F1E796
:10207000704700BFFCEC00E006F0D8F9202080F3A8
:10208000118808484FF40061401880F30988EFF385
:1020900014800221084380F31488BFF36F8FFFF789
:1020A00045FD00005854002008B5034B034A0121A8
:1020B000034803F09FFE08BD00000420000000203C
:1020C00058910000084AC2F898000B6823F01F03DB
:1020D000034343F01003C2F89C308B6843F00103C4
:1020E000C2F8A030704700BF00ED00E010B5044614
:1020F000072803D8FFF7E6FF204610BD024645211A
:10210000024803F013FD6FF01500F6E7649100003C
:102110002DE9F84380460F4699461646002509E00A
:102120002146F0B203F047FE064610F1160F19D013
:1021300001360135BD4215DA05EB450408EB840490
:102140006268002AF5D0B9F1000FE9D0204603F00B
:1021500021FE0028E4D12A464521044803F0E6FC8C
:102160006FF015063046BDE8F88300BF909100007F
:1021700010B5034C01232278FFF7CAFF207010BD71
:10218000502C0020044B0522C3F89420BFF34F8F3E
:10219000BFF36F8F704700BF00ED00E0BFF35F8FAC
:1021A000024B0022C3F89420704700BF00ED00E00E
:1021B00038B50E4B1D68082D15D8FFF7EFFF00242A
:1021C00009E00A4B596804EB440293001944204685
:1021D000FFF778FF0134A542F3D8054B1D70FFF7D8
:1021E000D1FF002038BD4FF0FF30FBE7C891000061
:1021F000502C0020014B1860704700BF10000020D9
:102200004FF02003EFF3118283F31288BFF36F8F37
:1022100001230649C1F840354FF08041C1F87835B7
:1022200082F31188BFF36F8F0020704700E00140F8
:1022300030B108B58001034B43F00103984708BD56
:10224000704700BFF0860000004870472C27002030
:10225000034BC01A8010034B03FB00F0704700BF14
:10226000EC260020B76DDBB638B505460C46FFF707
:10227000EFFF01464022034803F0B7FE014628461F
:10228000A04738BD9084000030B583B005460C46A9
:10229000FFF7DEFF0146402300932346054A064828
:1022A00003F0BDFE011E01DB03B030BD2846A04790
:1022B000FAE700BF816000009084000008B510B10B
:1022C00001280DD008BD0021084803F017FE8368DF
:1022D00013F0070FF6D10021044803F074FEF1E774
:1022E0000121024803F06FFEECE700BF908400007C
:1022F00010B54FF02003EFF3118483F31288BFF37E
:102300006F8F134A136843F00203136013F0010F39
:1023100008D1002384F31188BFF36F8F9BB903F0BA
:10232000B7FE10BD4FF08043D3F80C24D3F80C3423
:1023300012F0010F01D10023ECE7FFF785FF03F056
:102340002FFE0123E6E70021024803F03CFEE8E708
:102350003C2700209084000008B50A4BBFF35B8F38
:1023600053E8002F22F0020143E800100028F7D1C3
:10237000BFF35B8F12F0010F00D008BD03F092FE97
:10238000FBE700BF3C27002070B506460022012174
:102390001046FFF7B1FB114801F086F9104B984247
:1023A00019D104F016F90024012C12D82146304628
:1023B00003F0A4FD05462146304603F0ACFD094973
:1023C00003F03AFB002805DB0123AB601C44E4B2B8
:1023D000EAE7002070BD6FF00400FBE7BD220000BB
:1023E0000000AD0B4892000070B5054605F0DCFF1B
:1023F00020B91E4B1B789BB1002300E001231E4631
:1024000083B14FF02003EFF3118483F31288BFF3FD
:102410006F8F66B94FF080430222C3F8082306E0AD
:102420000123ECE70024F4E72046FFF717FB4FF009
:102430008042D2F8183403F00303D2F8182412F4BF
:10244000803F0BD10022002AEED00BB1012DEBD141
:1024500036B184F31188BFF36F8F70BD0122F2E7AC
:102460004FF080430222C3F80423F6E7532C0020E8
:1024700010B50446104B0121BFF35B8F53E8002FCA
:1024800043E800100028F9D1BFF35B8F1AB1631E37
:10249000012B0DD910BD094803F03DFD084900236B
:1024A0004B608B60CB6001238B6003F0E2FAEEE7B8
:1024B0002046FFF799FFEDE74027002090840000B9
:1024C000DC26002010B5044C2046FEF737FF2046DE
:1024D000FFF790FE002010BDDD24000070B582B033
:1024E00006468DF807000224EFF311854FF0200116
:1024F00081F3118801220DF10701002002F0F6FAA4
:1025000085F3118828B9084B1B784BB12CB1013CDD
:10251000EAE7054B01221A7002E0034B00221A7011
:10252000304602B070BD00BF512C002010B50446EB
:102530000A2807D0074B1868E1B283685B689847A0
:10254000204610BD034B186883685B680D219847CF
:10255000F0E700BF4427002010B5044C2046FFF7E9
:1025600049FE2046FEF7EAFE10BD00BF2D25000003
:1025700008B50648064B186005F0F8FE18B1FFF7DD
:10258000EBFF002008BD6FF01200FBE7D8840000CD
:102590004427002028B1012801D1034870470020BA
:1025A00070470248704700BFA8840000C084000044
:1025B000F0B585B00E46194643681B7B06F01F0533
:1025C00045EA4315B2F5001F22D007461446002302
:1025D00002930393104603F0E8FD8DF808007B6832
:1025E0009968F14011F0010F02D1B4F1A07F14D02D
:1025F000002302AA1946284601F0D4FA1B4B984240
:1026000031D10121284601F0ABFC002005B0F0BD1E
:10261000284601F009FD0020F8E705F01F036A09CC
:10262000012A14D04FF0A04203F5E07352F8233092
:1026300013F0010FDCD10DF10701284601F034FC45
:102640000B4B984205D00DF107030393D0E7094ADD
:10265000EAE70DF1070001F07BFC044B9842F2D051
:102660006FF00B00D2E76FF00400CFE70000AD0B76
:102670000400AD0B0003005030B583B004460DF1EB
:10268000070101F011FC0546204601F0FDFC0B4B53
:1026900098420FD19D4205D0084B984207D10020A7
:1026A00003B030BD9DF8070001F04AFCF4E76FF07D
:1026B0000400F5E76FF00400F2E700BF0000AD0B87
:1026C0002DE9F04387B0D0F8048098F80C3001F081
:1026D0001F0444EA4314002A44D00E46174600253E
:1026E000039504950DF11701204601F0DDFB8146AD
:1026F0002B4603AA2946204601F054FA304B984253
:102700005BD1994536D017F4003F43D00DF103015A
:10271000384603F0D1FC054640BB9DF803308DF8E8
:10272000043017F4803F0CBF012300238DF80530DF
:10273000384603F007FD8DF8060017F4002F1ED071
:10274000D8F80430012101FA06F6C3F80865002222
:1027500001A9204601F0DEFA194B984206D06FF02D
:10276000150503E02046FFF787FF0546284607B01A
:10277000BDE8F0839DF8170001F0E2FBC3E717F412
:10278000802FE4D0D8F80420012303FA06F6C2F81B
:102790000C65DCE7384603F0D5FC8DF80800002313
:1027A0001A4602A9204601F0FDF9054B984201D1D5
:1027B0000025DBE76FF01505D8E76FF01505D5E7C5
:1027C0000000AD0B08B501F0B1FB08B1002008BD59
:1027D00001F082FB084B98420AD10021074801F022
:1027E0005DFB002205210620FFF786F90020EEE7B9
:1027F0006FF00400EBE700BF0000AD0B4962000082
:10280000034BD3F8003413F0010FF9D0704700BF29
:1028100000E00140024B0B6001231360704700BFD2
:1028200060270020004870473493000008B503F08B
:102830002FFD48B34FF08043D3F8103513F0010259
:10284000D2B2C3F3430321D04FF08040D0F810152B
:1028500021F01F014FEA430C41EA4303C0F8103551
:10286000D0F808311BB90A4B1A7000200DE0D0F8DF
:10287000103523F01F034CF0010C43EA0C03C0F8A1
:1028800010356FF08B0000E0002008BD0020FCE751
:10289000522C00200A4B1B788BB14FF08041D1F8AD
:1028A0001025D1F8103523F01F0302F01E0242F06C
:1028B00001021343C1F81035014B00221A70704712
:1028C000522C002070B50D46164603F02FFF04462B
:1028D00003F028FF002D06DBA84214D9401B8642D6
:1028E00013D9002300E00023FBB1B5FBF4F304FB94
:1028F000135363B9B6FBF4F304FB13633BB9B4425F
:102900000ED9002070BD0023EEE70123ECE733462B
:102910002A464521094803F009F96FF01500F1E74F
:102920003146284603F0E4FCECE733462A464521CD
:10293000034803F0FBF86FF01500E3E7A8920000EE
:10294000CC92000010B503F0F5FE034C206003F0BC
:10295000EDFE6060002010BD6027002070B50C46C1
:1029600016461D4603F0DEFE002C06DBA04209D908
:10297000001B854208D9002300E0002333B175B95C
:10298000002070BD0023F9E70123F7E72B4622461C
:102990004521064803F0CAF86FF01500F1E72A4612
:1029A0002146304603F05AFA0020EAE7CC920000B4
:1029B00070B50C4616461D4603F0B4FE002C06DB2F
:1029C000A0420FD9001B85420ED9002300E000234E
:1029D00063B114F0030F12D115F0030F0FD1BDB97D
:1029E000002070BD0023F3E70123F1E72B462246C8
:1029F00045210A4803F09AF86FF01500F1E72B46DD
:102A000022464521064803F091F86FF01500E8E7EB
:102A10002A463146204603F095FCE2E7CC920000BE
:102A2000F092000010B4436800297DD11A68B2F119
:102A3000FF3F17D002F01F015209012A64D04FF066
:102A4000A04001228A40C0F808251A6802F01F0140
:102A50005209012A5AD04FF0A04001F5E07203213B
:102A600040F822105A68B2F1FF3F0FD0197C0029BC
:102A70004ED0032002F01F015209012A4AD04FF024
:102A8000A044800001F5E07244F822009A68B2F197
:102A9000FF3F17D002F01F015209012A3CD04FF02E
:102AA000A04001228A40C0F808259A6802F01F0160
:102AB0005209012A32D04FF0A04001F5E072032103
:102AC00040F82210DA68B2F1FF3F0ED0597C39B3DA
:102AD000032002F01F015209012A23D04FF0A04425
:102AE000800001F5E07244F8220019685868334A02
:102AF000C2F81405C2F80C159968DB68C2F808150D
:102B0000C2F8103510BC70472D489AE72C48A4E74E
:102B10000020AFE72A4CB4E72948C2E72848CCE7B1
:102B20000020D6E7264CDBE71A68B2F1FF3F0BD056
:102B300002F01F015209012A37D04FF0A04001F5E1
:102B4000E072022140F822105A68B2F1FF3F0BD028
:102B500002F01F015209012A29D04FF0A04001F5CF
:102B6000E072022140F822109A68B2F1FF3F0BD0C8
:102B700002F01F015209012A1BD04FF0A04001F5BD
:102B8000E072022140F82210DA68B2F1FF3FACD0C7
:102B900002F01F015209012A0DD04FF0A04001F5AB
:102BA000E072022140F822109FE70548C7E7044879
:102BB000D5E70348E3E70248F1E700BF0020004003
:102BC00000030050034BD3F81C01003818BF01204C
:102BD000704700BF00200040034B0022C3F81C21B7
:102BE000D3F81C31704700BF00200040B1F5164FEC
:102BF0006DD03BD8B1F5165F6BD00AD9B1F5E14F76
:102C000072D025D947F6122399422CD14FF40003F4
:102C100013E0B1F5966F5ED007D9B1F5166F60D0AD
:102C2000B1F5965F11D13A4B07E0B1F5967F55D0DB
:102C3000B1F5167F06D14FF41C33364AC2F824355D
:102C4000002070476FF0150070476FF01500704757
:102C5000B1F5615F4AD0B1F5964F01D12E4BECE74B
:102C60006FF0150070476FF015007047B1F5613FC8
:102C70003FD009D9B1F5612F42D01DD9274B9942D8
:102C800043D14FF08053D8E7B1F5963F33D004D904
:102C9000B1F5E13F0DD1224BCFE74DF6C02399426C
:102CA0002BD0B1F5614F01D11E4BC6E76FF0150077
:102CB00070476FF0150070471B4B994222D0B1F559
:102CC000E12F01D1194BB8E76FF015007047184B91
:102CD000B3E7184BB1E74FF49E23AEE74FF4A033B0
:102CE000ABE74FF41D23A8E7134BA6E74FF46C1393
:102CF000A3E7124BA1E7124B9FE74FF465039CE754
:102D0000104B9AE74FF0806397E76FF0150070471C
:102D100000B013000020004000A04E0040420F0011
:102D200000E0D70100F0EB0090D0030000705F07D7
:102D300000509D000050270000F0750000B0AF0368
:102D400000903A0100D0BE0E084BD3F808314BB1C9
:102D5000064B0020C3F80801D3F80821D3F8183532
:102D60000B7070474FF0FF30704700BF00200040ED
:102D7000024BD3F88004C3F8800470470020004061
:102D800030B583B00C4605694B79012B06D0032B77
:102D90000FD06FF08503184603B030BD00238DF8C7
:102DA0000630A379032B2AD1E37933B16FF0850381
:102DB000F1E710238DF80630F3E78DF8043023791E
:102DC00023B1022B17D06FF08503E4E700238DF8C1
:102DD00005302168FFF70AFF034698B99DF80520E2
:102DE0009DF806100A430949C1F86C2594E80300D0
:102DF00085E80300CFE70E238DF80530E9E76FF093
:102E00008503C8E76FF08503C5E700BF00200040D9
:102E100038B50446056900210A4BC3F80015FFF7D1
:102E200001FE29462046FFF7ABFF50B9054B0422AF
:102E3000C3F800250022C3F80821D3F80821012295
:102E40001A6038BD0020004038B50C4605F0ACFAD9
:102E5000C0B96425194B0122BFF35B8F53E8001FF3
:102E6000002903D143E800200028F7D1BFF35B8F8E
:102E70000BD04FF47A7005F0D3FA013D15F0FF0541
:102E8000E8D102E00D4B01221A60FFF7A5FE0C4BC2
:102E900001229A60C3F81C454FF47A74FFF792FE42
:102EA00020B9012003F07EFB013CF7D1044B012245
:102EB000DA60024B00221A6038BD00BF682700208C
:102EC0000020004021F07F4100F5A870014B43F83D
:102ED000201070470010014000F5A870014B53F816
:102EE00020007047001001404FF480338340024AB5
:102EF000C2F84433704700BF001001404FF48033E4
:102F00008340024AC2F84833704700BF00100140B6
:102F1000014BD3F8040570470010014010B50123A0
:102F200083406FEA030C104ABFF35B8F52E8001F27
:102F300001EA0C0E42E800E4002CF7D1BFF35B8FEE
:102F40004FF4803202FA00F002F1804202F5805222
:102F5000C2F80803BFF35F8FBFF36F8F0B4214BF3C
:102F60000120002010BD00BF7027002070B504466E
:102F700003F039FA05464FF48033A340174AD2F8DC
:102F80000423134205D10026284603F035FA3046C3
:102F900070BD0123A340DB43114ABFF35B8F52E8AE
:102FA000001F01EA030042E80006002EF7D1BFF33C
:102FB0005B8F59B904F150039B009BB203F180432E
:102FC00003F588331B6813B1012300E001231E467B
:102FD000002BD9D0204603F0F7F9D5E700100140C7
:102FE0006C27002001B9704701238340114ABFF3C9
:102FF0005B8F52E8001F194342E8001CBCF1000F30
:10300000F7D1BFF35B8F4FF4803383400A4AC2F895
:103010000433BFF35B8F094B1B68BFF35B8F23FA4D
:1030200000F010F0010FDED0054B4FF40032C3F872
:103030000021D8E770270020001001406C270020F5
:1030400000E100E02DE9F843074614461E4610460D
:10305000194603F0C5F90546154B1A68A01A1C60FD
:103060005E60A5F50013B3F5400F09D3002401F00D
:10307000E9FE3846FFF730FFA8420ED0BDE8F883DE
:103080000C4B1B681A0A1B0615EB030842F10009DA
:10309000094BC3E900890124E9E71CB13846FFF771
:1030A00023FFEBE74FF400013846FFF70BFFF5E78E
:1030B000E000002074270020C800002038B50D4B28
:1030C0001C68250A2406BFF35F8FFFF721FF034624
:1030D000001945F10001B3F5801F0AD2064BD3E970
:1030E0000023904271EB030303D210F1807041F191
:1030F000000138BD74270020C8000020F8B506463E
:1031000014461D461046194603F06AF90746FFF7B4
:10311000D5FFA04271EB05031DD2231A65EB010117
:103120001B4A934271F100032FD21A4B03EB061393
:10313000D3E90223AB4208BFA2421AD03946304637
:1031400003F05FF9394603F03BF9001945F100033C
:1031500004461D460DE00123B3400F4ABFF35B8FC9
:1031600052E8001F194342E800100028F8D1BFF3CD
:103170005B8F084B320103EB0616C6E90245069940
:103180009950079B73600020F8BD6FF01500FBE7B6
:1031900001000001D00000206C27002030B583B072
:1031A00000231D4AC2F80835002B24DD1A4C0225E5
:1031B000C4F80453194B4FF40032C3F880210022A5
:1031C00001211120FEF798FC1120FEF779FC012364
:1031D000A3602360124A136000240194114B0093F2
:1031E000114A0023204603F047F92846FFF740F92B
:1031F000204603B030BD0D4A02EB03124FF0FF3002
:103200004FF0FF31C2E902014FF480329A40024987
:10321000C1F804230133C7E70010014000E100E0DA
:103220007027002045300000FFFF7F00D000002005
:103230002DE9F04782B00446FFF798FE10B902B0BE
:10324000BDE8F087FFF73AFF82460E4603F0CBF861
:103250000546134B03EB0413D3E90289C24576EB11
:1032600009030BD20026284603F0C6F8002EE6D04C
:10327000009742464B462046B047E0E7084A230104
:1032800002EB0411D6584F680020D0504FF0FF32A7
:103290004FF0FF33C1E902232046FFF72FFEE2E79C
:1032A000D000002010B50E4BD3F8043313F0020FFA
:1032B0000DD00B4BD3F804314BB1094B0022C3F8AE
:1032C0000421D3F80431074A136801331360002442
:1032D000002C00DD10BD2046FFF7AAFF0134F7E700
:1032E000001001407427002010B582B0B0F1FF3FFC
:1032F00006D0012806DDB0F5000F05DA441E04E013
:103300000F48F8E7002400E00D4CFFF7D7FE0D4B07
:1033100019685B68401AB0F5000F00D30024204400
:10332000421CB2F5000F00D3054A00208A18019014
:103330000549009143F1000303F09EF802B010BD6F
:10334000FFFF7F00E00000204530000008B5FFF7D8
:10335000B5FE024B1B68C01A08BD00BFE00000208C
:10336000024BD3F80034002BFAD0704700E0014044
:1033700008B5034BC3F80405FFF7F2FF08BD00BF13
:1033800000E00140014B024A1A6070471C00002017
:103390000090D00338B503F088F840B14FF0804377
:1033A0000022C3F80C21C3F81021C3F8382503F01C
:1033B00086F8002846D04FF08052D2F80414594BBA
:1033C000C3F82015D2F80814C3F82415D2F80C1449
:1033D000C3F82815D2F81014C3F82C15D2F8141419
:1033E000C3F83015D2F81814C3F83415D2F81C14E9
:1033F000C3F84015D2F82014C3F84415D2F82414A9
:10340000C3F84815D2F82814C3F84C15D2F82C1478
:10341000C3F85015D2F83014C3F85415D2F8341448
:10342000C3F86015D2F83814C3F86415D2F83C1408
:10343000C3F86815D2F84014C3F86C15D2F84424C8
:10344000C3F8702503F045F818B1374B374AC3F875
:103450008C2603F051F818B1354BFB22C3F8182520
:1034600003F05DF870B14FF08041D1F8E43E23F0F5
:103470000F034FF08052D2F8582202F00F0213438C
:10348000C1F8E43E03F05EF820B12A4B4FF400721D
:10349000C3F8402603F069F860B14FF08043D3F8D9
:1034A000003413F0010F05D04FF080436FF001029C
:1034B000C3F8002403F063F838B14FF01023D3F8B9
:1034C00008224FF08043C3F858254FF01023D3F85B
:1034D0000032002B08DB4FF01023D3F80432002B0E
:1034E00002DBFFF74FFF38BD0120FFF741FF4FF030
:1034F00010241225C4F80052FFF732FFC4F804521A
:10350000FFF72EFF0020FFF733FFBFF34F8F0A496D
:10351000CA6802F4E062094B1343CB60BFF34F8FDC
:1035200000BFFDE700C0004000500040488103009C
:1035300000F000400090024000ED00E00400FA05B9
:1035400010B50468B4FA84F3C3F11F035FFA83FC77
:10355000002B16DB012202FA03F324EA0303BFF374
:103560005B8F50E8002FA24204D140E8003EBEF13C
:10357000000FF6D1BFF35B8FE3D181F800C00248A2
:1035800010BD0248FCE700BF0000AD0B0200AD0B10
:103590000368CB4013F0010F15D100B50268012379
:1035A0008B401343BFF35B8F50E800CF944504D1A9
:1035B00040E8003EBEF1000FF6D1BFF35B8FEDD1C6
:1035C00002485DF804FB0248704700BF0000AD0BE5
:1035D0000400AD0B70B582B0054618B1012816D0B5
:1035E00002B070BD4FF080430222C3F808230022CE
:1035F000C3F80421D3F804210122DA6001238DF8F5
:1036000007309D420FD0002642F2107429E04FF09F
:1036100080430122C3F808230021C3F80011D3F826
:1036200000115A60EAE70DF10706EDE736B14FF0F9
:103630008043D3F8183403F0030333604FF0804322
:10364000D3F8183413F4803F22D1002323B31EB1E2
:103650009DF80730012B1FD1012002F0A3FF013C90
:103660001AD0002DE2D0012D01D00023EEE736B1B3
:103670004FF08043D3F80C3403F0010333704FF064
:103680008043D3F80C3413F4803F03D10023DDE7EB
:103690000123DBE70123D9E7012DA1D1014B002252
:1036A0005A719DE778270020064B1B7943B9054BDB
:1036B00000229A711860012119715A7102487047ED
:1036C00002487047782700200000AD0B0C00AD0BBE
:1036D00008B54FF08043D3F800318BB14FF08043F1
:1036E0000022C3F80021D3F800210122C3F80823E7
:1036F0001C4B5B7923B91B4B5A711B680020984700
:103700004FF08043D3F804316BB14FF08043002277
:10371000C3F80421D3F804210222C3F80823114B73
:103720001B68012098474FF08043D3F80C31BBB1A0
:103730004FF08043D3F8043313F0080F10D04FF04C
:1037400080430022C3F8342CC3F80C21D3F80C11A9
:103750000821C3F80813034B9A711B68032098478C
:1037600008BD00BF782700200830034B33F8100055
:1037700000F00100704700BF200000200830034B1C
:1037800033F81000C0F34010704700BF2000002045
:103790000830044B33F8100010F01C0018BF012053
:1037A000704700BF200000200830034B33F81000A2
:1037B000C0F34000704700BF200000200830024BDB
:1037C00033F81000400B704720000020002204E076
:1037D0004FF0FF3383420FD001322F2A0AD802F173
:1037E0000803064931F8133013F4807FF0D0C3F397
:1037F0004323EFE70020704701207047200000209E
:10380000002313B14FF0FF307047074A52F83320BE
:10381000824201D00133F4E7034A02EBC30252684B
:103820008A42F7D118467047200000200830064B26
:1038300033F8100010F4807F04D0C0F3432003EB72
:10384000C0007047002070472000002070B504467B
:103850000D46FFF7EBFF20B1066842682946204677
:10386000B047044B9B6823B1024AD26829462046E0
:10387000984770BD2000002000F108020E4B33F87D
:10388000123013F4807F16D010B5C3F343241046D2
:1038900023F4F853084A22F810302046FFF796FF29
:1038A00000B110BD0448002340F834302146743084
:1038B000FFF76EFEF5E770472000002010B50446C4
:1038C000FFF75CFF40B12046FFF778FF00F5A270DC
:1038D000064B002243F820202046FFF7CDFF083496
:1038E000034B002223F8142010BD00BF00600040ED
:1038F0002000002070B582B006460C461546FFF742
:10390000BBFF24B329462046FFF77AFF031E13DBD3
:10391000104A42F8334002EBC3014D605B029BB298
:1039200006F1080032F810100B4343F4807322F8BC
:103930001030094802B070BD0DF107010748FFF7CC
:10394000FFFD054B9842F5D19DF80730E0E70248AE
:10395000F0E700BF200000200000AD0B9400002025
:1039600038B5044618E094FAA4F3B3FA83F30122BD
:103970009A4024EA02040A4A03F5A27352F823503B
:10398000C5F3052552F82300C0F3014002F09AFE6A
:1039900001462846FFF75AFF002CE4D138BD00BF8E
:1039A0000060004082B08446114B93E8030002ABF4
:1039B00003E90300604600230BE002AA02EB830246
:1039C00052F8082CD2F8201540F8041BC2F8201534
:1039D0000133012BF1D90023012B04D85CF82320FB
:1039E00022B90133F8E7002002B070470120FBE75D
:1039F000E086000070B504460D461646084602F003
:103A000063FED0B9022E52D0022004F01F026109D9
:103A100001294ED04FF0A04102F5E07251F822305A
:103A200023F4403343EA004341F82230032D44D0CD
:103A3000022E40D0032E45D070BD29462046FFF708
:103A400005FF04F01F036209012A2AD04FF0A042AB
:103A500003F5E07352F82330C3F301439E42EBD1E8
:103A600004F01F036209012A1DD04FF0A04103F5A5
:103A7000E07351F8232022F4403241F8232004F06F
:103A80001F036409012C10D04FF0A04103F5E0732F
:103A900051F8232022F4403242EA064641F82360DE
:103AA000CAE70A4AD4E70949E1E70849EEE70320F3
:103AB000ABE70649B0E7012DBCD129462046FFF708
:103AC000C5FEB9E7022DB7D1F7E700BF00030050EC
:103AD00070B584B02F4A6B4692E8030083E8030078
:103AE000002302A80BE004AA02EB830252F8102C78
:103AF000D2F8201540F8041BC2F820150133012B21
:103B0000F1D942E0244E05F5E07356F82320C2F3C4
:103B10000142FFF76FFF0123AB40C6F8203504AB2D
:103B200003EB840353F8080C10B390FAA0F0B0FA3A
:103B300080F000EB441000F10802184B33F812102B
:103B4000C1F38201C50800F007020DF1080C012342
:103B500003FA02F21CF8053023EA02030CF80530E0
:103B600000F01F054309012BCCD04FF0A046CAE757
:103B70000134012CD3D90A4B0022C3F87C21D3F89D
:103B80007C3102A8FFF70EFF08B10024F1E704B072
:103B900070BD00BFE0860000000300502000002040
:103BA000006000402DE9F041044615461E4671B301
:103BB0000F4602F071FD002840F0998004F01F02CA
:103BC0006309012B45D04FF0A04002F5E07350F897
:103BD0002330002F3FD00C2141F0030123EA0103E1
:103BE000002F3AD0397889000B4302F5E07240F893
:103BF0002230434A04F1080132F8113023F0020365
:103C00009BB222F8113043F0010322F81130BDB10C
:103C10002F78D5F804802046FFF7C6FDF8B1B8F13B
:103C2000000F66D1364A04F1080132F8113023F052
:103C30001C039BB222F8113043EA870322F81130AB
:103C4000002E5AD0726831682046FFF753FEBDE857
:103C5000F0812C48B9E70021BEE70021C4E7284ADB
:103C600004F1080132F8113023F02003DB04DB0CEF
:103C700022F81130B8F1000FD4D0032F3BD86B6875
:103C80001D7837B905F5A2751F4B002243F8252092
:103C9000C8E7384602F017FD1B4B05F5A27253F832
:103CA000221021F0030143F8221053F8221021F4CE
:103CB0004F3121F4407143F8221053F822C0210201
:103CC00001F47C51000400F4403001434CEA01014E
:103CD00043F822106B039BB2094A04F1080132F841
:103CE0001100034343F0200322F811309AE70748FC
:103CF000ADE70648ABE70548A9E70548A7E700BFD9
:103D00002000002000030050006000400400AD0BC4
:103D10000000AD0BF8B504461546002955D00E46F7
:103D200002F0C9FC28B12046FFF728FD002840F02A
:103D3000A2802046FFF72CFD18B17378012B00F00C
:103D40009C8006F1010CB71C04F01F026309012BD3
:103D500057D04FF0A04102F5E07351F82300BCF1B9
:103D6000000F50D0022343F00103002F4DD04FF03D
:103D70000C0E43EA0E03002E4AD04FF4E06E43EAE5
:103D80000E0320EA0300BCF1000F44D073785B00FF
:103D900043F00103002F40D096F802C04FEA8C0C8C
:103DA00043EA0C03002E3BD03678360233430343FC
:103DB00002F5E07241F82230334A04F1080132F88A
:103DC000113043F0030322F81130002D57D0204664
:103DD00002F071FC002854D12B7803F5A2712B4A14
:103DE00042F82100284904F1080031F8102022F09F
:103DF0002002D204D20C21F810206A7892B924480B
:103E0000F8BD2449A7E70023ADE74FF0000EB0E767
:103E10004FF0000EB3E70023BAE74FF0000CBFE706
:103E20000026C3E7AF78194803F5A27550F82510AE
:103E300021F4991121F4F85140F8251050F825602B
:103E4000210201F47C51120402F440320A43390584
:103E500001F480110A43324340F825205B039BB2F2
:103E6000094A083432F814100B4343F0200322F8B7
:103E700014300748C4E70848C2E70748C0E70448C9
:103E8000BEE70548BCE700BF2000002000600040FE
:103E90000000AD0B000300500400AD0B014B986017
:103EA000D96070472000002038B504460D46FFF762
:103EB00065FC40B104F10800044B33F810305B0B93
:103EC0002B70034838BD0348FCE700BF20000020EA
:103ED0000000AD0B0400AD0B104B93F878300BB124
:103EE0000F48704710B50D4C6022002104F11000FE
:103EF00001F0E3FF0620FDF7E3FD0A4B0022C3F8C3
:103F00007C21D3F87C214FF00042C3F80423012325
:103F100084F878306367044810BD00BF200000209B
:103F20000500AD0B006000400000AD0B034B93F8A3
:103F30007800003818BF0120704700BF2000002023
:103F400008B501460148FFF723FB08BD900000209B
:103F500008B501460148FFF7F3FA08BD90000020BC
:103F600038B504460D46FFF709FC08B3204602F0B9
:103F7000A2FBE8B12046FFF721FC830003F5807324
:103F80009BB203F1804303F5C04300221A601B6813
:103F9000224A00F5A27152F8213043F0010342F8A1
:103FA00021309DB3012303FA00F0C2F804032DE091
:103FB00004F108031A4A32F81330C3F38203042BC6
:103FC00012D0052B23D004F01F026309012B09D066
:103FD0004FF0A043D3F81035D34013F0010F18D0A1
:103FE000032002E00F4BF5E7032004F01F026409F1
:103FF000012C10D04FF0A04102F5E07251F82230B0
:1040000023F4403343EA004341F8223038BD022014
:10401000EBE70220E9E70349EEE700BF006000405C
:10402000200000200003005010B50446FFF7A6FB57
:10403000A0B1204602F03FFB80B12046FFF7BEFB57
:10404000012282400E4BC3F8082300F5A27053F8FA
:10405000202022F0030243F820200EE004F01F038A
:104060006409012C0AD04FF0A04103F5E07351F828
:10407000232022F4403241F8232010BD0149F4E707
:10408000006000400003005010B50446FFF76CFBD1
:1040900008B90C4810BD2046FFF7C6FF2046FFF7C1
:1040A0000DFC04F01F036409012C08D04FF0A0425E
:1040B00003F5E073022142F823100348EAE7034ABC
:1040C000F6E700BF0400AD0B0000AD0B000300508D
:1040D00038B501204FF4807300210C4603E0400006
:1040E00004339BB20131072914D803F1804202F551
:1040F000C0421268002AF2D00C4AD2F804231042BF
:10410000EDD003F1804202F5C0420025156012682F
:104110000443E4E7054BD3F87C311BB92046FFF795
:104120001FFC38BDFFF7D4FCF8E700BF006000407B
:10413000024B0022C3F80425704700BF00E0014095
:10414000024B0122C3F80425704700BF00E0014084
:10415000024B0222C3F80425704700BF00E0014073
:10416000044BD3F8003413F0010FF9D00160BFF312
:104170005F8F704700E0014010B5044602F0BAFAC4
:1041800008B9084810BDFFF7E3FF074BC3F808451F
:10419000054BD3F8003413F0010FF9D0FFF7C8FF37
:1041A0000248EFE70A00AD0B00E001400000AD0B54
:1041B0000268124B9A4215D1C269A3F11023A3F1F0
:1041C000EF139A4210D18368012B0FD8C36813B143
:1041D000026993420CD0436963B1826993420BD068
:1041E0000020704701207047012070470120704770
:1041F00001207047002070470120704755AA00FF3A
:1042000070B5114B9D68B5B12846FFF7D1FF064642
:1042100098B9EB6813B10126304670BD2C69002CAB
:10422000FAD02046FFF7C4FF48B9E368AB4208D193
:1042300025462469F3E70126EEE70126ECE701268F
:10424000EAE70126E8E700BF80270020002800F009
:10425000928038B50546484B1B68002B6CD0464A07
:104260009268002A68D0834204D8434A52681344B3
:10427000834203D8414B1B6801209847A5F12004D5
:104280002046FFF795FF18B13C4B1B68012098476B
:1042900055F8183C012B03D0384B1B680120984778
:1042A000002345F8183C55F8143CCBB19A68002A15
:1042B00043D155F81C2C59680A4420325A6055F8ED
:1042C000143C55F8102C1A6155F8145C2B6903B195
:1042D000DD6020220021204601F0EFFD23462C4620
:1042E00025691DB3AA680ABB6B6862681344203352
:1042F00063602B69236163690BB323B3A2699A617D
:10430000A3690BB162695A616B696361AA69A261B1
:10431000EBB19C61A36903B15C61236903B1DC600B
:1043200020220021284601F0C8FD2B4693B1124BF4
:104330001B6913F0020F15D138BD0023D0E7A26925
:10434000002ADAD1E0E7A2690B4BDA60D8E70A4B22
:10435000DC60DFE7084BDB68A36103B15C61064BFF
:10436000DC60E4E7FFF74CFF0028E5D0034B1B6857
:1043700001209847E0E7704780270020A000002038
:1043800070B54F4BDC681D68002D58D09D68002D1E
:1043900055D001FB00F6002800F08880002900F0CD
:1043A0008780B6FBF0F0884240F0848016F1040F5D
:1043B00000F2828016F0030F43D026F00305043587
:1043C00000E0A46914B16368AB42FAD3002C75D045
:1043D000A3681BB13B4B1B68012098476268521BC6
:1043E000232A30D905F120016318203A5A600022AF
:1043F0009A60DC6022691A61334860503349D961A0
:1044000002B1D36062695A61A1699961002A41D001
:1044100093619A6902B153610122A26065602361D0
:1044200000236361A361264B1B6913F0010F34D194
:1044300004F1200532460021284601F03EFD2846C1
:1044400070BD3546BEE70123A3606369ABB1A269C5
:104450009A61A3690BB162695A6100236361A36128
:10446000174B1B6913F0010F0BD104F120053246E5
:104470000021284601F021FDE1E7A269104BDA6036
:10448000E7E7FFF7BDFE0028EFD00E4B1B680120C9
:104490009847EAE70A4AD360BBE7FFF7B1FE002876
:1044A000C6D0084B1B6801209847C1E70025C6E726
:1044B0000025C4E70025C2E70025C0E72546BEE782
:1044C00080270020A000002055AA00FF669911EE69
:1044D00038B505460C4614220021134801F0EDFCC6
:1044E0001249134800F038F8232C1CD915F00303A7
:1044F00004D01C44043CC3F104031D4422460021A3
:10450000284601F0DAFC084B1D605C609D60203C91
:104510006C609A68074911609A68A1F11021A1F1B5
:10452000EF11D161DA6038BD802700204D420000D4
:104530008143000055AA00FF08B5024B1B6898474D
:1045400008BD00BF9C00002008B5024B1B689847BF
:1045500008BD00BFA4000020024B1860024B196088
:10456000002070479C000020A400002031B108B555
:104570000A46034B1B680021984708BD704700BFDF
:10458000A8000020F8B504460D46476800F108066B
:10459000304602F0DFFC874251D16368B3F5807F7B
:1045A0004FD80021304602F05CFE00282ADD0021B1
:1045B000304602F0A7FC28B3CDB104F12C0600214F
:1045C000304602F04EFE00281EDD0021304602F08B
:1045D00099FCC8B104F138060021304602F041FED2
:1045E000002811DD0021304602F08CFC60B1002172
:1045F00004F1140002F035FE002824DD35B9ADB910
:104600002846F8BD124DFBE7114DF9E7002104F1F2
:10461000440002F026FE002806DD002104F15000CF
:1046200002F01FFE0028EADC094DE9E7002104F151
:104630005C0002F016FE002807DD0025E0E7044DCF
:10464000DEE7034DDCE7024DDAE7014DD8E700BFB6
:1046500080BFFFFF70B5044600221146FFF792FFAE
:10466000E0B9064604F10805284602F05CFC7F2804
:1046700016D914340021204602F044FC60B12046D3
:1046800002F051FC012807D92946204602F09BFD83
:10469000002801DA304670BD024EFBE7014EF9E713
:1046A000004EF7E700BEFFFFF0B587B004460D46A9
:1046B000164600221146FFF765FF98BB03A802F0DB
:1046C0006CFB6268294603A802F04AFC054630B13B
:1046D00003A802F068FB15BB284607B0F0BD04F143
:1046E0000805294603A802F06EFD002802DB6FF0E2
:1046F0000305EDE7676804F1680300932B4604F1B6
:10470000140203A9084603F0E6F805460028DFD1A5
:104710003A46314603A802F044FC0546D8E7A5F521
:104720008545D9E7004DD7E780BFFFFF0023036031
:1047300043600B46B9B9194A8260194AC260194AE6
:104740000261194A4261194A8261194AC261194AD1
:10475000026202F17452A2F52302A2F69242426270
:10476000836600207047144A8260144AC26002F1D6
:10477000794202F5740202F501620261104A426157
:10478000104A826102F1D14202F5C01202F51E62A6
:10479000C2610D4A02620D4A4262E1E767E6096AB8
:1047A00085AE67BB72F36E3C3AF54FA57F520E5152
:1047B0008C68059BABD9831FD89E05C107D57C3675
:1047C00039590EF7310BC0FFA78FF964A44FFABE19
:1047D0002DE9F047CAB0002307E09A1C50F82240A8
:1047E00003F142024DF822400133072BF5D9002294
:1047F00053E011F8225001EB820463781B0443EA72
:104800000563A57843EA0523E4782343941C4DF817
:104810002430499B469C4FEAF42C8CEAB41C8CEA69
:10482000746C6344489D479E85EA060C04EA0C0CB0
:1048300085EA0C0C6344374F57F822703B44971CB1
:104840005DF827703B440093DDF808E14FEA7E3CB9
:104850008CEABE0C8CEABE5CDDF80C810EEA08071F
:10486000DDF810914EEA080A09EA0A0A47EA0A073F
:10487000BC44CDF804C0459F1F4445976344499309
:1048800000934995489647944697CDF81491CDF8F2
:104890001081CDF80CE1429301323F2A21D80F2A32
:1048A000A7D95DF822404FEAF44383EA744383EAD0
:1048B0009423541F5DF824402344A2F10D045DF8B5
:1048C00024504FEAB54484EAF51484EAD50423441D
:1048D000A2F10E045DF824402344941C4DF82430CA
:1048E00097E700230AE003F142025DF82240991C99
:1048F00050F82120224440F821200133072BF2D91F
:104900004FF494716846FFF731FE00204AB0BDE8CD
:10491000F08700BF6C93000008B51022034901F036
:104920008BFA08B1022008BD0120FCE710950000B9
:1049300030B585B005468168103921F0070401F0D3
:1049400065F901461022684601F0B7FA10220749BE
:10495000684601F083FA10236A462146284601F092
:1049600012F908B905B030BD0120FBE71095000031
:1049700030B585B0044602A9012003F064FC00288C
:1049800069D16946022003F05EFC012803D00028AB
:1049900063D100241AE022464921314801F0C6F8CB
:1049A00003238DF8003001228DF801208DF80230AC
:1049B0008DF8033000238DF80430EAE72B79042BBF
:1049C00029D09DF80A20934225D00134022C3BD8EF
:1049D00004EB4403234A02EB43059DF8081012F848
:1049E000130003F053FB0028EFD09DF80010687807
:1049F00003F04CFB0028E8D0AB78042B03D09DF8E3
:104A00000B209342E1D1EB78042BD7D09DF8032003
:104A10009342DAD1D2E76B79022B07D0032B11D066
:104A2000042B01D0104A02E0104A00E0104A49214C
:104A3000104801F07BF86879831EDBB2022B08D99D
:104A4000FF2006E00C4AF2E749210C4801F06EF81D
:104A5000012005B030BDFF20FBE7FF20F9E700BFD4
:104A600098940000209500007C9400009094000031
:104A70006C940000E494000074940000F89400002A
:104A800010B5144C032323616361134AA261134BD5
:104A9000E3614FF4806323620023A3626362E362F5
:104AA00022660F4A62661022A2662367E366636786
:104AB0000C49E01D01F0A2F9BFF35F8F0A492046BF
:104AC00001F09CF9BFF35F8F2023A371BFF35F8FC9
:104AD00010BD00BF94270020349500004C28002012
:104AE0003C2800204095000044950000F8B50F4692
:104AF0001646184B451C05EB450503EBC50500EBB9
:104B0000400003EBC000C46A012C11D0022C1CD061
:104B100014B100242046F8BD284603F0BBFB8642B2
:104B2000F8D832463946284603F0C0FB3446F1E750
:104B3000284603F0AFFB3446864228BF044622468F
:104B40003946284603F0B2FBE4E7284603F0D4FBDD
:104B50000446DFE794270020034B00E01833034AA4
:104B60009342FBD3704700BF90840000088500008B
:104B700070B50646114B53F8204009E0404217E05B
:104B8000EB681870EA68537843F0010353700834F7
:104B9000731C0A4A52F82330A3420DD96568236872
:104BA00028469847002DF2D00028EBD00028E5DBFE
:104BB000FF28E5DDFF20E3E770BD00BF4C95000056
:104BC00038B5054628B303782BB3144C00E01834ED
:104BD000134B9C4208D0204603F0C8FB0028F6D0B7
:104BE0002368AB42F3D112E00C4C00E018340C4BBC
:104BF0009C420BD0204603F0B9FB0028F6D0216878
:104C0000284601F00EF90028F0D100E000242046EB
:104C100038BD0446FBE70024F9E700BF908400009C
:104C20000885000004280CD8DFE800F0030D050714
:104C3000090006487047064870470648704706480E
:104C40007047064870470648704700BFB09500009F
:104C50008495000094950000A095000060950000E8
:104C60007095000030B108B503F0A4FB20B10378C3
:104C700023B108BD024870470148FAE70048F8E749
:104C8000C095000010B504464521034800F04EFFD2
:104C9000204603F078FB00BFC895000070B582B0D5
:104CA00005460C464FF02003EFF3118683F312887C
:104CB000BFF36F8FFFF7B6FF0346002200922A462C
:104CC0004521104800F032FF1CB1E369C3F308032B
:104CD00093B90020FFF7C6FF0346002245210A488A
:104CE00000F024FF21462846FFF7CCFF86F3118809
:104CF000BFF36F8F02B070BD4521044800F016FF6E
:104D0000E7E700BFDC950000349600000C96000039
:104D100008B5094B01221A700220FFF729FF00F0A5
:104D2000EFF80320FFF724FFFBF758FB034A137B40
:104D300023F00103137308BD532C0020E80000206A
:104D400008B50348034A121A002103F025FB08BDE9
:104D5000C8000020542C002008B5194B83F30888A4
:104D6000184C636943F400736361E02384F82230D4
:104D70000025E57725766576A57684F82050636A68
:104D800043F4E023636284F82350FDF749F9FCF70C
:104D90005FFE4FF0FF33A362E362FDF709FAFDF710
:104DA00083F9FFF7D9FE2846FFF7E2FE0120FFF75F
:104DB000DFFE2B462A4629460348FCF7EBFE00BFE0
:104DC000585C002000ED00E0114D000008B50648D9
:104DD000064A121A064903F0E3FA064A064907484A
:104DE00003F0DEFA08BD00BF00000020C80000206C
:104DF000A096000000000000A09600000000002027
:104E0000034B1868984200D070470020FCE700BFB1
:104E1000AC00002030B1044A5268904201D00068D2
:104E200070470020704700BFAC00002008B5044B5D
:104E30001B680BB1002008BDFEF788FAFBE700BF36
:104E40004C2C002070B54FF02003EFF3118583F355
:104E50001288BFF36F8F284B186020E02748016845
:104E60004668891846EBE276016046609B1A224A42
:104E7000136000220023C4E90423204603F09CFAB7
:104E800085F31188BFF36F8FA368204698474FF0D2
:104E90002003EFF3118583F31288BFF36F8FFFF7C1
:104EA000AFFF044640B102694169134B1B68D81734
:104EB000934270EB0101D1DA44B10F4B19682369B9
:104EC00062695B1A62EBE172236162610B4A0A4E0E
:104ED0003068136851681B1841EBE0711360516032
:104EE0000024346003F07FFA2146FEF7FDF985F3D4
:104EF0001188BFF36F8F70BD4C2C0020680100201B
:104F000008B5034A0349044800F0ACFC08BD00BFE3
:104F1000A89000005896000078960000704710B5E1
:104F200082B0044601A90079FBF7BAFAA368019A96
:104F300013442268128999184FF02004EFF311806E
:104F400084F31288BFF36F8F9B5883F308884B68F4
:104F5000984702B010BD19B1012903D10220704752
:104F6000012070476FF015007047002070472DE951
:104F7000F0439DB015469946249FDDF89480279C08
:104F800001A802F08FFF002101A8FFF7CFFB14B1A9
:104F9000289B002B06DC2B89EE6833446E891E4467
:104FA000002513E01A46214601A802F081FFF2E72E
:104FB00023463A462946484600F0C7FD034688B9CD
:104FC0002246394601A802F073FF2544B54204D2B7
:104FD000741B4445ECD94446EAE7269901A802F03F
:104FE000AAFF002318461DB0BDE8F0832DE9F04369
:104FF00083B000284AD00C46174699460646002939
:1050000047D0002A48D00D89CB681D4404230DEBFE
:1050100003022946384600F098FD804600283ED11C
:10502000BDF8042046F608139A421ED06389002B6F
:105030003BD1BDF8042046F607139A4238D13460BC
:105040007760A6F808909DF82830B37263892B44E6
:10505000F36063892B44BDF8062013447361043563
:105060003561404603B0BDE8F0836389BDF80610A2
:105070008B4217D104230DEB03022944384600F07C
:1050800064FD0028D5D04FF0FF38EAE74FF0FF3835
:10509000E7E74FF0FF38E4E74FF0FF38E1E74FF084
:1050A000FF38DEE74FF0FF38DBE74FF0FF38D8E797
:1050B0004FF0FF38D5E700284DD0F0B583B00F464C
:1050C00016461D4604460368002B48D043680BBBB8
:1050D0004FF0FF313AE004230DEB030221696068D1
:1050E00000F033FD014600283CD1A37A1BB12269B0
:1050F000E3689A4239D223894FF6FF72934217D060
:10510000BDF80420934213D0BDF80600236918446B
:10511000043020612069636998421AD223685B8950
:10512000002BD8D0E3688342D5D104302061D2E788
:1051300015B1BDF804302B80236904333B60BDF802
:10514000063033802269134404332361084603B0D8
:10515000F0BD0121FAE74FF0FF31084670474FF0EC
:10516000FF31F3E74FF0FF31F0E70121EEE72DE9E2
:10517000F04184B004460E461546302303AA294662
:10518000304601F04EFBA8BB3368039A1344AB4290
:1051900033D104F108073A462946304601F057FB5F
:1051A00028BB04F1140842462946304601F04FFB63
:1051B000E8B9384601F0CEFE60603368AB421FD1DB
:1051C000CDF804800022009213463946204602F0B2
:1051D000EBFDC0B92046FFF73DFA0546B0B93846A9
:1051E00001F0B8FE6060284604B0BDE8F0816FF0C1
:1051F0000205F8E74FF0FF35F5E76FF00105F2E73C
:105200006FF00305EFE76FF00405ECE76FF00505BD
:10521000E9E7F0B5A5B006460F4600230893DF2462
:1052200007E025462A466946304600F017FE2E4420
:10523000641B002C1DDD09A802F034FE002109A822
:10524000FFF774FA2022394609A802F031FE042241
:1052500008A909A802F02CFE694609A802F06BFE15
:105260009DF8233001338DF823301F2CD9DD202504
:10527000D8E725B0F0BD70B586B00E460123ADF875
:1052800004300025012D1BD8314606AB2B4413F802
:10529000140CFCF7ADFB0446A0B9306881681023FC
:1052A00002AA103900F051FC0446306800F04CFCB2
:1052B00044B902A8FBF7ACFA012803D00135E1E7B5
:1052C0004FF0FF34204606B070BD08B500F0B4FDC5
:1052D00008BD00EB4000C001704708B5FFF7F9FFBB
:1052E000303008BD0B78012B07D0022B02D14FF4D0
:1052F000C07070474FF0FF3070474FF4C070704778
:1053000010B5044600F079FCFFF7E7FFA368181A10
:1053100010BD30B583B00C4601A9FFF7ACFF0546C0
:1053200010B1284603B030BD019802F0A9FE042355
:105330002246A0F10801019800F007FC05460198FB
:1053400000F002FCEDE708B58168183921F007018B
:105350000122083902F00BFF08BD10B582B00446E7
:10536000019102F08DFE04230DEB0302A0F1080170
:10537000204602F0CDFE02B010BD00207047002094
:10538000704708B5006A00F038FC08BD38B505461E
:10539000002408E0C4F101032C2202FB0353186A25
:1053A00000F0D2FB0134012CF4D938BD2DE9F041D5
:1053B00082B004460D4617460020FFF7CCFD01A938
:1053C000C0B2FCF715FB40B14FF00108019800F0A6
:1053D000BBFB404602B0BDE8F0812C2303FB054334
:1053E0001E89DB681E4404236A463146019800F09A
:1053F000ACFB804640BB2C2101FB05446489BDF811
:10540000002046F608139A420CD004BBBDF80020D9
:1054100046F607139A421DD12644BDF802301E44B9
:105420003E60D3E7BDF802108C4202D04FF0030873
:10543000CCE704236A463144019800F086FB00283B
:10544000E4D04FF00108C1E74FF00108BEE74FF08C
:105450000308BBE74FF00308B8E7F0B583B0054693
:105460000C460020FFF777FD01A9C0B2FCF7C0FA97
:10547000D0B90646019800F0C9FB0746019800F034
:1054800063FB2C2101FB04510023032B05D8CA5CCC
:10549000974207D10133DBB2F7E701233BB1304636
:1054A00003B0F0BD0023F9E74FF0FF36F7E74FF008
:1054B000FF36F4E710B582B0034608468022019219
:1054C000012905D002290ED11A6D03F1540402E01E
:1054D0005A6A03F1280401A9FCF7AEFA08B9019B46
:1054E000236002B010BD0120FBE738B5044601215E
:1054F000FFF7E0FF10B10125284638BD0221204604
:10550000FFF7D8FF054620B92046FFF73AFFE065D0
:10551000F2E70925F0E7F8B505460F4616460024E0
:10552000012C10DC33462C2202FB04522146284673
:10553000FBF7A8FC034608B90134F1E7002C03DDB2
:1055400017B9002300E000231846F8BD38B505461A
:105550000C46006AFFF709FD20712B6A5B68A360A7
:10556000256038BD002383718360C36001234371CC
:1055700003600371C37170474379012B01D0002090
:1055800070470368012B01D0002070470379012B7D
:1055900001D0002070470120704738B50546FBF761
:1055A000EBF995F85840E31EDBB2012B0DD9022C24
:1055B00003D0042C01D0032C06D1002000F0DDF82C
:1055C00010B1FF2385F8583038BD002000F0E8F80E
:1055D0000028ECD0FF2485F85840EAE770B584B085
:1055E00004460E4603A90120FCF702FA18B1012473
:1055F000204604B070BD0398FFF782FE0546E16DBA
:10560000304600F0EDF82C18039800F0F6FA054645
:10561000039800F0FBFA0146082201A800F04DFCB7
:1056200033798DF804302B4601AA2146039800F007
:10563000AAFA044600B10124039800F085FAD7E7DE
:1056400008B500F0BEFA08BD2DE9F04706460F4642
:1056500000210846FFF77FFC044601210020FFF7E8
:105660007AFC3B789C4223D0984223D1012399466F
:105670002C2202FB03639C6A013CF06DFFF72DFEB8
:10568000804600252C2303FB09635B6A03EBC402FD
:10569000D2F804A053F834101B685246C91A384691
:1056A000FFF7CEFF013C55444545EBD3BDE8F087FD
:1056B0000023DCE70120F9E730B583B00C4615463E
:1056C0006946022002F0BFFDE97901290DD19DF85C
:1056D0000330012B0ED0A9682046FFF73EFE20467E
:1056E000FFF726F9002003B030BD0022204602F06B
:1056F000BFFDECE7204602F045FDECE770B582B057
:1057000005460E46FBF7D2FC0446F06090B3022833
:105710002FD101A90120FCF76BF908B1012429E080
:10572000324629460198FBF709FC044618B1019856
:1057300000F00AFA1EE0019802F0A2FC01460123E3
:105740000DF10302019800F000FA044608B10124AB
:10575000EDE701220DF10301019802F0A6FC10B162
:1057600001238DF803309DF8033003F00F03F3712C
:10577000DDE70724204602B070BD10B582B001A954
:105780000120FCF735F918B10124204602B010BD04
:105790000198FFF7D8FD0446019800F0D5F9F4E729
:1057A00010B584B003A90120FCF722F918B1012437
:1057B000204604B010BD01A9039802F0F4FC044691
:1057C00060B99DF80730032B03D0039800F0BCF9B3
:1057D000EEE7039802F0D6FC0446F6E70124F4E76E
:1057E00010B54279012A12D0022301FB03F3012AEA
:1057F0000FD04FEAC11E0279013A046804F1FF3C60
:105800000CFB03F301FB023101EB0E0010BD012381
:10581000EBE74FF0000EEEE7024658B1436803F0A5
:105820000303012B03D0032B07D1036843B10020EE
:10583000906070476FF0150070476FF0150070476B
:105840006FF0150070470346426802F00302816062
:10585000032A03D1006800225A6070470020FAE74B
:10586000002070470FB400B583B004A951F8040BB1
:105870000191FBF769FD03B05DF804EB04B07047DC
:1058800001F00703018B21F00701194301837047E1
:105890002DE9F04106460F469046816819B10C4645
:1058A00031B10C6804E00C4602E0234621461C4658
:1058B00059B14D6843463A463046A847002CF4D0CB
:1058C0002346002CF2D02368F0E7BDE8F081038B7B
:1058D00013F0070303D102680AB103207047022BBB
:1058E00003D0012B06D000207047428B002AF8D14C
:1058F0000420704703680BB10520704700207047F3
:1059000010B504468C46038B002A07DB03F007031F
:105910005A1F012A0ED9042B33D010BDD0E9000143
:105920008CE8030000232360636001212046FFF719
:10593000A7FFF2E7D0E900018CE803000022226013
:105940006260062B18D1DCF800303BB1628B01326B
:105950006283002BF9D01B68002BF6D10221204670
:10596000FFF78EFF2046FFF7B2FF0028D5D0238B2C
:1059700043F020032383D0E700212046FFF780FF78
:10598000F0E70021FFF77CFF2046FFF7A0FF00288B
:10599000C3D0238B43F020032383BEE758B110B557
:1059A0000C4659B1081DFFF737FF18B9A36833F04B
:1059B000030306D110BD6FF0150070476FF015009E
:1059C000F8E76FF01500F5E72DE9F04107460C46C2
:1059D00016461D461946201DFFF735FF28B18046A3
:1059E0002B46324621463846C047BDE8F0812DE9B6
:1059F000F04180460C4617461E4604E033463A46C0
:105A00004046FFF7E1FF216831B10D68256063680A
:105A10008B42F3D16560F1E7BDE8F08108B54FF046
:105A2000200CEFF311828CF31288BFF36F8F41616A
:105A30000121FBF799FC08BD034670B181B10A68EA
:105A40008AB14A6892B10020186058609860D860A6
:105A5000186158619861196170476FF015007047BF
:105A60006FF0150070476FF0150070476FF015006C
:105A70007047F8B504460F46FFF790FF061E37DB68
:105A80004FF02003EFF3118283F31288BFF36F8F7F
:105A9000258B05F00705638B4FF6FF718B422FD0E6
:105AA0002E46022D0CD08DB1042D0FD0062D0DD019
:105AB000052D1FD06FF0040600210B4608460AE0B2
:105AC0000133638301210023184604E0B5FA85F30E
:105AD0005B090021012028B1002038606068A8B16E
